{
	"MyToken.sol": {
		"MyToken": {
			"abi": [
				{
					"inputs": [
						{
							"internalType": "string",
							"name": "name",
							"type": "string"
						},
						{
							"internalType": "string",
							"name": "symbol",
							"type": "string"
						}
					],
					"stateMutability": "nonpayable",
					"type": "constructor"
				},
				{
					"anonymous": false,
					"inputs": [
						{
							"indexed": true,
							"internalType": "address",
							"name": "owner",
							"type": "address"
						},
						{
							"indexed": true,
							"internalType": "address",
							"name": "spender",
							"type": "address"
						},
						{
							"indexed": false,
							"internalType": "uint256",
							"name": "value",
							"type": "uint256"
						}
					],
					"name": "Approval",
					"type": "event"
				},
				{
					"anonymous": false,
					"inputs": [
						{
							"indexed": true,
							"internalType": "address",
							"name": "from",
							"type": "address"
						},
						{
							"indexed": true,
							"internalType": "address",
							"name": "to",
							"type": "address"
						},
						{
							"indexed": false,
							"internalType": "uint256",
							"name": "value",
							"type": "uint256"
						}
					],
					"name": "Transfer",
					"type": "event"
				},
				{
					"inputs": [
						{
							"internalType": "address",
							"name": "owner",
							"type": "address"
						},
						{
							"internalType": "address",
							"name": "spender",
							"type": "address"
						}
					],
					"name": "allowance",
					"outputs": [
						{
							"internalType": "uint256",
							"name": "",
							"type": "uint256"
						}
					],
					"stateMutability": "view",
					"type": "function"
				},
				{
					"inputs": [
						{
							"internalType": "address",
							"name": "spender",
							"type": "address"
						},
						{
							"internalType": "uint256",
							"name": "amount",
							"type": "uint256"
						}
					],
					"name": "approve",
					"outputs": [
						{
							"internalType": "bool",
							"name": "",
							"type": "bool"
						}
					],
					"stateMutability": "nonpayable",
					"type": "function"
				},
				{
					"inputs": [
						{
							"internalType": "address",
							"name": "account",
							"type": "address"
						}
					],
					"name": "balanceOf",
					"outputs": [
						{
							"internalType": "uint256",
							"name": "",
							"type": "uint256"
						}
					],
					"stateMutability": "view",
					"type": "function"
				},
				{
					"inputs": [
						{
							"internalType": "uint256",
							"name": "value",
							"type": "uint256"
						}
					],
					"name": "burn",
					"outputs": [
						{
							"internalType": "bool",
							"name": "",
							"type": "bool"
						}
					],
					"stateMutability": "nonpayable",
					"type": "function"
				},
				{
					"inputs": [
						{
							"internalType": "address",
							"name": "from",
							"type": "address"
						},
						{
							"internalType": "uint256",
							"name": "value",
							"type": "uint256"
						}
					],
					"name": "burnFrom",
					"outputs": [
						{
							"internalType": "bool",
							"name": "",
							"type": "bool"
						}
					],
					"stateMutability": "nonpayable",
					"type": "function"
				},
				{
					"inputs": [],
					"name": "decimals",
					"outputs": [
						{
							"internalType": "uint8",
							"name": "",
							"type": "uint8"
						}
					],
					"stateMutability": "view",
					"type": "function"
				},
				{
					"inputs": [
						{
							"internalType": "address",
							"name": "spender",
							"type": "address"
						},
						{
							"internalType": "uint256",
							"name": "subtractedValue",
							"type": "uint256"
						}
					],
					"name": "decreaseAllowance",
					"outputs": [
						{
							"internalType": "bool",
							"name": "",
							"type": "bool"
						}
					],
					"stateMutability": "nonpayable",
					"type": "function"
				},
				{
					"inputs": [
						{
							"internalType": "address",
							"name": "spender",
							"type": "address"
						},
						{
							"internalType": "uint256",
							"name": "addedValue",
							"type": "uint256"
						}
					],
					"name": "increaseAllowance",
					"outputs": [
						{
							"internalType": "bool",
							"name": "",
							"type": "bool"
						}
					],
					"stateMutability": "nonpayable",
					"type": "function"
				},
				{
					"inputs": [
						{
							"internalType": "address",
							"name": "to",
							"type": "address"
						},
						{
							"internalType": "uint256",
							"name": "value",
							"type": "uint256"
						}
					],
					"name": "mint",
					"outputs": [
						{
							"internalType": "bool",
							"name": "",
							"type": "bool"
						}
					],
					"stateMutability": "nonpayable",
					"type": "function"
				},
				{
					"inputs": [],
					"name": "name",
					"outputs": [
						{
							"internalType": "string",
							"name": "",
							"type": "string"
						}
					],
					"stateMutability": "view",
					"type": "function"
				},
				{
					"inputs": [],
					"name": "owner",
					"outputs": [
						{
							"internalType": "address",
							"name": "",
							"type": "address"
						}
					],
					"stateMutability": "view",
					"type": "function"
				},
				{
					"inputs": [],
					"name": "symbol",
					"outputs": [
						{
							"internalType": "string",
							"name": "",
							"type": "string"
						}
					],
					"stateMutability": "view",
					"type": "function"
				},
				{
					"inputs": [],
					"name": "totalSupply",
					"outputs": [
						{
							"internalType": "uint256",
							"name": "",
							"type": "uint256"
						}
					],
					"stateMutability": "view",
					"type": "function"
				},
				{
					"inputs": [
						{
							"internalType": "address",
							"name": "to",
							"type": "address"
						},
						{
							"internalType": "uint256",
							"name": "amount",
							"type": "uint256"
						}
					],
					"name": "transfer",
					"outputs": [
						{
							"internalType": "bool",
							"name": "",
							"type": "bool"
						}
					],
					"stateMutability": "nonpayable",
					"type": "function"
				},
				{
					"inputs": [
						{
							"internalType": "address",
							"name": "from",
							"type": "address"
						},
						{
							"internalType": "address",
							"name": "to",
							"type": "address"
						},
						{
							"internalType": "uint256",
							"name": "amount",
							"type": "uint256"
						}
					],
					"name": "transferFrom",
					"outputs": [
						{
							"internalType": "bool",
							"name": "",
							"type": "bool"
						}
					],
					"stateMutability": "nonpayable",
					"type": "function"
				}
			],
			"devdoc": {
				"kind": "dev",
				"methods": {
					"allowance(address,address)": {
						"details": "See {IERC20-allowance}."
					},
					"approve(address,uint256)": {
						"details": "See {IERC20-approve}. NOTE: If `amount` is the maximum `uint256`, the allowance is not updated on `transferFrom`. This is semantically equivalent to an infinite approval. Requirements: - `spender` cannot be the zero address."
					},
					"balanceOf(address)": {
						"details": "See {IERC20-balanceOf}."
					},
					"decimals()": {
						"details": "Returns the number of decimals used to get its user representation. For example, if `decimals` equals `2`, a balance of `505` tokens should be displayed to a user as `5.05` (`505 / 10 ** 2`). Tokens usually opt for a value of 18, imitating the relationship between Ether and Wei. This is the value {ERC20} uses, unless this function is overridden; NOTE: This information is only used for _display_ purposes: it in no way affects any of the arithmetic of the contract, including {IERC20-balanceOf} and {IERC20-transfer}."
					},
					"decreaseAllowance(address,uint256)": {
						"details": "Atomically decreases the allowance granted to `spender` by the caller. This is an alternative to {approve} that can be used as a mitigation for problems described in {IERC20-approve}. Emits an {Approval} event indicating the updated allowance. Requirements: - `spender` cannot be the zero address. - `spender` must have allowance for the caller of at least `subtractedValue`."
					},
					"increaseAllowance(address,uint256)": {
						"details": "Atomically increases the allowance granted to `spender` by the caller. This is an alternative to {approve} that can be used as a mitigation for problems described in {IERC20-approve}. Emits an {Approval} event indicating the updated allowance. Requirements: - `spender` cannot be the zero address."
					},
					"name()": {
						"details": "Returns the name of the token."
					},
					"symbol()": {
						"details": "Returns the symbol of the token, usually a shorter version of the name."
					},
					"totalSupply()": {
						"details": "See {IERC20-totalSupply}."
					},
					"transfer(address,uint256)": {
						"details": "See {IERC20-transfer}. Requirements: - `to` cannot be the zero address. - the caller must have a balance of at least `amount`."
					},
					"transferFrom(address,address,uint256)": {
						"details": "See {IERC20-transferFrom}. Emits an {Approval} event indicating the updated allowance. This is not required by the EIP. See the note at the beginning of {ERC20}. NOTE: Does not update the allowance if the current allowance is the maximum `uint256`. Requirements: - `from` and `to` cannot be the zero address. - `from` must have a balance of at least `amount`. - the caller must have allowance for ``from``'s tokens of at least `amount`."
					}
				},
				"version": 1
			},
			"evm": {
				"assembly": "    /* \"MyToken.sol\":93:775  contract MyToken is ERC20{... */\n  mstore(0x40, 0x80)\n    /* \"MyToken.sol\":147:252  constructor(string memory name, string memory symbol) ERC20(name, symbol) {... */\n  callvalue\n  dup1\n  iszero\n  tag_1\n  jumpi\n  0x00\n  dup1\n  revert\ntag_1:\n  pop\n  mload(0x40)\n  sub(codesize, bytecodeSize)\n  dup1\n  bytecodeSize\n  dup4\n  codecopy\n  dup2\n  add\n  0x40\n  dup2\n  swap1\n  mstore\n  tag_2\n  swap2\n  tag_3\n  jump\t// in\ntag_2:\n    /* \"openzeppelin/ERC20.sol\":2038:2051  _name = name_ */\n  dup2\n  mload\n    /* \"MyToken.sol\":207:211  name */\n  dup3\n  swap1\n    /* \"MyToken.sol\":213:219  symbol */\n  dup3\n  swap1\n    /* \"openzeppelin/ERC20.sol\":2038:2051  _name = name_ */\n  tag_7\n  swap1\n    /* \"openzeppelin/ERC20.sol\":2038:2043  _name */\n  0x03\n  swap1\n    /* \"openzeppelin/ERC20.sol\":2038:2051  _name = name_ */\n  0x20\n  dup6\n  add\n  swap1\n  tag_8\n  jump\t// in\ntag_7:\n  pop\n    /* \"openzeppelin/ERC20.sol\":2061:2078  _symbol = symbol_ */\n  dup1\n  mload\n  tag_9\n  swap1\n    /* \"openzeppelin/ERC20.sol\":2061:2068  _symbol */\n  0x04\n  swap1\n    /* \"openzeppelin/ERC20.sol\":2061:2078  _symbol = symbol_ */\n  0x20\n  dup5\n  add\n  swap1\n  tag_8\n  jump\t// in\ntag_9:\n  pop\n    /* \"MyToken.sol\":235:247  _msgSender() */\n  tag_11\n  swap2\n  pop\n  pop\n    /* \"MyToken.sol\":235:245  _msgSender */\n  tag_12\n    /* \"MyToken.sol\":235:247  _msgSender() */\n  jump\t// in\ntag_11:\n    /* \"MyToken.sol\":227:232  owner */\n  0x05\n    /* \"MyToken.sol\":227:247  owner = _msgSender() */\n  dup1\n  sload\n  not(sub(shl(0xa0, 0x01), 0x01))\n  and\n  sub(shl(0xa0, 0x01), 0x01)\n  swap3\n  swap1\n  swap3\n  and\n  swap2\n  swap1\n  swap2\n  or\n  swap1\n  sstore\n  pop\n    /* \"MyToken.sol\":93:775  contract MyToken is ERC20{... */\n  tag_26\n  swap1\n  pop\n  jump\n    /* \"openzeppelin/utils/Context.sol\":640:736  function _msgSender() internal view virtual returns (address) {... */\ntag_12:\n    /* \"openzeppelin/utils/Context.sol\":719:729  msg.sender */\n  caller\n    /* \"openzeppelin/utils/Context.sol\":640:736  function _msgSender() internal view virtual returns (address) {... */\n  swap1\n  jump\t// out\n    /* \"MyToken.sol\":93:775  contract MyToken is ERC20{... */\ntag_8:\n  dup3\n  dup1\n  sload\n  tag_15\n  swap1\n  tag_16\n  jump\t// in\ntag_15:\n  swap1\n  0x00\n  mstore\n  keccak256(0x00, 0x20)\n  swap1\n  0x1f\n  add\n  0x20\n  swap1\n  div\n  dup2\n  add\n  swap3\n  dup3\n  tag_18\n  jumpi\n  0x00\n  dup6\n  sstore\n  jump(tag_21)\ntag_18:\n  dup3\n  0x1f\n  lt\n  tag_19\n  jumpi\n  dup1\n  mload\n  not(0xff)\n  and\n  dup4\n  dup1\n  add\n  or\n  dup6\n  sstore\n  jump(tag_21)\ntag_19:\n  dup3\n  dup1\n  add\n  0x01\n  add\n  dup6\n  sstore\n  dup3\n  iszero\n  tag_21\n  jumpi\n  swap2\n  dup3\n  add\ntag_20:\n  dup3\n  dup2\n  gt\n  iszero\n  tag_21\n  jumpi\n  dup3\n  mload\n  dup3\n  sstore\n  swap2\n  0x20\n  add\n  swap2\n  swap1\n  0x01\n  add\n  swap1\n  jump(tag_20)\ntag_21:\n  pop\n  tag_22\n  swap3\n  swap2\n  pop\n  tag_23\n  jump\t// in\ntag_22:\n  pop\n  swap1\n  jump\t// out\ntag_23:\ntag_24:\n  dup1\n  dup3\n  gt\n  iszero\n  tag_22\n  jumpi\n  0x00\n  dup2\n  sstore\n  0x01\n  add\n  jump(tag_24)\n    /* \"#utility.yul\":14:895   */\ntag_27:\n  0x00\n    /* \"#utility.yul\":123:126   */\n  dup3\n    /* \"#utility.yul\":116:120   */\n  0x1f\n    /* \"#utility.yul\":108:114   */\n  dup4\n    /* \"#utility.yul\":104:121   */\n  add\n    /* \"#utility.yul\":100:127   */\n  slt\n    /* \"#utility.yul\":90:92   */\n  tag_29\n  jumpi\n    /* \"#utility.yul\":145:150   */\n  dup1\n    /* \"#utility.yul\":138:143   */\n  dup2\n    /* \"#utility.yul\":131:151   */\n  revert\n    /* \"#utility.yul\":90:92   */\ntag_29:\n    /* \"#utility.yul\":172:185   */\n  dup2\n  mload\n  sub(shl(0x40, 0x01), 0x01)\n    /* \"#utility.yul\":234:244   */\n  dup1\n  dup3\n  gt\n    /* \"#utility.yul\":231:233   */\n  iszero\n  tag_31\n  jumpi\n    /* \"#utility.yul\":247:265   */\n  tag_31\n  tag_32\n  jump\t// in\ntag_31:\n    /* \"#utility.yul\":296:298   */\n  0x40\n    /* \"#utility.yul\":290:299   */\n  mload\n    /* \"#utility.yul\":318:322   */\n  0x20\n    /* \"#utility.yul\":388:390   */\n  0x1f\n    /* \"#utility.yul\":369:382   */\n  dup5\n  add\n  not(0x1f)\n    /* \"#utility.yul\":365:392   */\n  and\n    /* \"#utility.yul\":353:393   */\n  dup3\n  add\n    /* \"#utility.yul\":349:398   */\n  dup2\n  add\n    /* \"#utility.yul\":413:431   */\n  dup4\n  dup2\n  gt\n    /* \"#utility.yul\":433:455   */\n  dup4\n  dup3\n  lt\n    /* \"#utility.yul\":410:456   */\n  or\n    /* \"#utility.yul\":407:409   */\n  iszero\n  tag_34\n  jumpi\n    /* \"#utility.yul\":459:477   */\n  tag_34\n  tag_32\n  jump\t// in\ntag_34:\n    /* \"#utility.yul\":495:497   */\n  0x40\n    /* \"#utility.yul\":488:510   */\n  mstore\n    /* \"#utility.yul\":519:537   */\n  dup4\n  dup3\n  mstore\n    /* \"#utility.yul\":556:571   */\n  dup6\n  dup5\n  add\n    /* \"#utility.yul\":552:576   */\n  dup2\n  add\n    /* \"#utility.yul\":549:582   */\n  dup8\n  lt\n    /* \"#utility.yul\":546:548   */\n  iszero\n  tag_35\n  jumpi\n    /* \"#utility.yul\":599:604   */\n  dup5\n    /* \"#utility.yul\":592:597   */\n  dup6\n    /* \"#utility.yul\":585:605   */\n  revert\n    /* \"#utility.yul\":546:548   */\ntag_35:\n    /* \"#utility.yul\":625:630   */\n  dup5\n    /* \"#utility.yul\":616:630   */\n  swap3\n  pop\n    /* \"#utility.yul\":639:772   */\ntag_36:\n    /* \"#utility.yul\":653:655   */\n  dup4\n    /* \"#utility.yul\":650:651   */\n  dup4\n    /* \"#utility.yul\":647:656   */\n  lt\n    /* \"#utility.yul\":639:772   */\n  iszero\n  tag_38\n  jumpi\n    /* \"#utility.yul\":741:755   */\n  dup6\n  dup4\n  add\n    /* \"#utility.yul\":737:760   */\n  dup2\n  add\n    /* \"#utility.yul\":731:761   */\n  mload\n    /* \"#utility.yul\":710:724   */\n  dup3\n  dup5\n  add\n    /* \"#utility.yul\":706:729   */\n  dup3\n  add\n    /* \"#utility.yul\":699:762   */\n  mstore\n    /* \"#utility.yul\":664:674   */\n  swap2\n  dup3\n  add\n  swap2\n    /* \"#utility.yul\":639:772   */\n  jump(tag_36)\ntag_38:\n    /* \"#utility.yul\":790:792   */\n  dup4\n    /* \"#utility.yul\":787:788   */\n  dup4\n    /* \"#utility.yul\":784:793   */\n  gt\n    /* \"#utility.yul\":781:783   */\n  iszero\n  tag_39\n  jumpi\n    /* \"#utility.yul\":849:854   */\n  dup5\n    /* \"#utility.yul\":844:846   */\n  dup2\n    /* \"#utility.yul\":839:841   */\n  dup6\n    /* \"#utility.yul\":831:837   */\n  dup5\n    /* \"#utility.yul\":827:842   */\n  add\n    /* \"#utility.yul\":823:847   */\n  add\n    /* \"#utility.yul\":816:855   */\n  mstore\n    /* \"#utility.yul\":781:783   */\ntag_39:\n  pop\n    /* \"#utility.yul\":883:889   */\n  swap6\n    /* \"#utility.yul\":80:895   */\n  swap5\n  pop\n  pop\n  pop\n  pop\n  pop\n  jump\t// out\n    /* \"#utility.yul\":900:1496   */\ntag_3:\n  0x00\n  dup1\n    /* \"#utility.yul\":1060:1062   */\n  0x40\n    /* \"#utility.yul\":1048:1057   */\n  dup4\n    /* \"#utility.yul\":1039:1046   */\n  dup6\n    /* \"#utility.yul\":1035:1058   */\n  sub\n    /* \"#utility.yul\":1031:1063   */\n  slt\n    /* \"#utility.yul\":1028:1030   */\n  iszero\n  tag_41\n  jumpi\n    /* \"#utility.yul\":1081:1087   */\n  dup2\n    /* \"#utility.yul\":1073:1079   */\n  dup3\n    /* \"#utility.yul\":1066:1088   */\n  revert\n    /* \"#utility.yul\":1028:1030   */\ntag_41:\n    /* \"#utility.yul\":1113:1129   */\n  dup3\n  mload\n  sub(shl(0x40, 0x01), 0x01)\n    /* \"#utility.yul\":1178:1192   */\n  dup1\n  dup3\n  gt\n    /* \"#utility.yul\":1175:1177   */\n  iszero\n  tag_42\n  jumpi\n    /* \"#utility.yul\":1210:1216   */\n  dup4\n    /* \"#utility.yul\":1202:1208   */\n  dup5\n    /* \"#utility.yul\":1195:1217   */\n  revert\n    /* \"#utility.yul\":1175:1177   */\ntag_42:\n    /* \"#utility.yul\":1238:1301   */\n  tag_43\n    /* \"#utility.yul\":1293:1300   */\n  dup7\n    /* \"#utility.yul\":1284:1290   */\n  dup4\n    /* \"#utility.yul\":1273:1282   */\n  dup8\n    /* \"#utility.yul\":1269:1291   */\n  add\n    /* \"#utility.yul\":1238:1301   */\n  tag_27\n  jump\t// in\ntag_43:\n    /* \"#utility.yul\":1228:1301   */\n  swap4\n  pop\n    /* \"#utility.yul\":1347:1349   */\n  0x20\n    /* \"#utility.yul\":1336:1345   */\n  dup6\n    /* \"#utility.yul\":1332:1350   */\n  add\n    /* \"#utility.yul\":1326:1351   */\n  mload\n    /* \"#utility.yul\":1310:1351   */\n  swap2\n  pop\n    /* \"#utility.yul\":1376:1378   */\n  dup1\n    /* \"#utility.yul\":1366:1374   */\n  dup3\n    /* \"#utility.yul\":1363:1379   */\n  gt\n    /* \"#utility.yul\":1360:1362   */\n  iszero\n  tag_44\n  jumpi\n    /* \"#utility.yul\":1397:1403   */\n  dup3\n    /* \"#utility.yul\":1389:1395   */\n  dup4\n    /* \"#utility.yul\":1382:1404   */\n  revert\n    /* \"#utility.yul\":1360:1362   */\ntag_44:\n  pop\n    /* \"#utility.yul\":1425:1490   */\n  tag_45\n    /* \"#utility.yul\":1482:1489   */\n  dup6\n    /* \"#utility.yul\":1471:1479   */\n  dup3\n    /* \"#utility.yul\":1460:1469   */\n  dup7\n    /* \"#utility.yul\":1456:1480   */\n  add\n    /* \"#utility.yul\":1425:1490   */\n  tag_27\n  jump\t// in\ntag_45:\n    /* \"#utility.yul\":1415:1490   */\n  swap2\n  pop\n  pop\n    /* \"#utility.yul\":1018:1496   */\n  swap3\n  pop\n  swap3\n  swap1\n  pop\n  jump\t// out\n    /* \"#utility.yul\":1501:1881   */\ntag_16:\n    /* \"#utility.yul\":1586:1587   */\n  0x02\n    /* \"#utility.yul\":1576:1588   */\n  dup2\n  div\n    /* \"#utility.yul\":1633:1634   */\n  0x01\n    /* \"#utility.yul\":1623:1635   */\n  dup3\n  and\n  dup1\n    /* \"#utility.yul\":1644:1646   */\n  tag_47\n  jumpi\n    /* \"#utility.yul\":1698:1702   */\n  0x7f\n    /* \"#utility.yul\":1690:1696   */\n  dup3\n    /* \"#utility.yul\":1686:1703   */\n  and\n    /* \"#utility.yul\":1676:1703   */\n  swap2\n  pop\n    /* \"#utility.yul\":1644:1646   */\ntag_47:\n    /* \"#utility.yul\":1751:1753   */\n  0x20\n    /* \"#utility.yul\":1743:1749   */\n  dup3\n    /* \"#utility.yul\":1740:1754   */\n  lt\n    /* \"#utility.yul\":1720:1738   */\n  dup2\n    /* \"#utility.yul\":1717:1755   */\n  eq\n    /* \"#utility.yul\":1714:1716   */\n  iszero\n  tag_48\n  jumpi\n    /* \"#utility.yul\":1797:1807   */\n  0x4e487b71\n    /* \"#utility.yul\":1792:1795   */\n  0xe0\n    /* \"#utility.yul\":1788:1808   */\n  shl\n    /* \"#utility.yul\":1785:1786   */\n  0x00\n    /* \"#utility.yul\":1778:1809   */\n  mstore\n    /* \"#utility.yul\":1832:1836   */\n  0x22\n    /* \"#utility.yul\":1829:1830   */\n  0x04\n    /* \"#utility.yul\":1822:1837   */\n  mstore\n    /* \"#utility.yul\":1860:1864   */\n  0x24\n    /* \"#utility.yul\":1857:1858   */\n  0x00\n    /* \"#utility.yul\":1850:1865   */\n  revert\n    /* \"#utility.yul\":1714:1716   */\ntag_48:\n  pop\n    /* \"#utility.yul\":1556:1881   */\n  swap2\n  swap1\n  pop\n  jump\t// out\n    /* \"#utility.yul\":1886:2013   */\ntag_32:\n    /* \"#utility.yul\":1947:1957   */\n  0x4e487b71\n    /* \"#utility.yul\":1942:1945   */\n  0xe0\n    /* \"#utility.yul\":1938:1958   */\n  shl\n    /* \"#utility.yul\":1935:1936   */\n  0x00\n    /* \"#utility.yul\":1928:1959   */\n  mstore\n    /* \"#utility.yul\":1978:1982   */\n  0x41\n    /* \"#utility.yul\":1975:1976   */\n  0x04\n    /* \"#utility.yul\":1968:1983   */\n  mstore\n    /* \"#utility.yul\":2002:2006   */\n  0x24\n    /* \"#utility.yul\":1999:2000   */\n  0x00\n    /* \"#utility.yul\":1992:2007   */\n  revert\n    /* \"#utility.yul\":1918:2013   */\ntag_26:\n    /* \"MyToken.sol\":93:775  contract MyToken is ERC20{... */\n  dataSize(sub_0)\n  dup1\n  dataOffset(sub_0)\n  0x00\n  codecopy\n  0x00\n  return\nstop\n\nsub_0: assembly {\n        /* \"MyToken.sol\":93:775  contract MyToken is ERC20{... */\n      mstore(0x40, 0x80)\n      callvalue\n      dup1\n      iszero\n      tag_1\n      jumpi\n      0x00\n      dup1\n      revert\n    tag_1:\n      pop\n      jumpi(tag_2, lt(calldatasize, 0x04))\n      shr(0xe0, calldataload(0x00))\n      dup1\n      0x42966c68\n      gt\n      tag_18\n      jumpi\n      dup1\n      0x95d89b41\n      gt\n      tag_19\n      jumpi\n      dup1\n      0x95d89b41\n      eq\n      tag_14\n      jumpi\n      dup1\n      0xa457c2d7\n      eq\n      tag_15\n      jumpi\n      dup1\n      0xa9059cbb\n      eq\n      tag_16\n      jumpi\n      dup1\n      0xdd62ed3e\n      eq\n      tag_17\n      jumpi\n      jump(tag_2)\n    tag_19:\n      dup1\n      0x42966c68\n      eq\n      tag_10\n      jumpi\n      dup1\n      0x70a08231\n      eq\n      tag_11\n      jumpi\n      dup1\n      0x79cc6790\n      eq\n      tag_12\n      jumpi\n      dup1\n      0x8da5cb5b\n      eq\n      tag_13\n      jumpi\n      jump(tag_2)\n    tag_18:\n      dup1\n      0x23b872dd\n      gt\n      tag_20\n      jumpi\n      dup1\n      0x23b872dd\n      eq\n      tag_6\n      jumpi\n      dup1\n      0x313ce567\n      eq\n      tag_7\n      jumpi\n      dup1\n      0x39509351\n      eq\n      tag_8\n      jumpi\n      dup1\n      0x40c10f19\n      eq\n      tag_9\n      jumpi\n      jump(tag_2)\n    tag_20:\n      dup1\n      0x06fdde03\n      eq\n      tag_3\n      jumpi\n      dup1\n      0x095ea7b3\n      eq\n      tag_4\n      jumpi\n      dup1\n      0x18160ddd\n      eq\n      tag_5\n      jumpi\n    tag_2:\n      0x00\n      dup1\n      revert\n        /* \"openzeppelin/ERC20.sol\":2150:2248  function name() public view virtual override returns (string memory) {... */\n    tag_3:\n      tag_21\n      tag_22\n      jump\t// in\n    tag_21:\n      mload(0x40)\n      tag_23\n      swap2\n      swap1\n      tag_24\n      jump\t// in\n    tag_23:\n      mload(0x40)\n      dup1\n      swap2\n      sub\n      swap1\n      return\n        /* \"openzeppelin/ERC20.sol\":4485:4704  function approve(... */\n    tag_4:\n      tag_25\n      tag_26\n      calldatasize\n      0x04\n      tag_27\n      jump\t// in\n    tag_26:\n      tag_28\n      jump\t// in\n    tag_25:\n      mload(0x40)\n      tag_23\n      swap2\n      swap1\n      tag_30\n      jump\t// in\n        /* \"openzeppelin/ERC20.sol\":3238:3344  function totalSupply() public view virtual override returns (uint256) {... */\n    tag_5:\n      tag_31\n      tag_32\n      jump\t// in\n    tag_31:\n      mload(0x40)\n      tag_23\n      swap2\n      swap1\n      tag_34\n      jump\t// in\n        /* \"openzeppelin/ERC20.sol\":5266:5552  function transferFrom(... */\n    tag_6:\n      tag_25\n      tag_36\n      calldatasize\n      0x04\n      tag_37\n      jump\t// in\n    tag_36:\n      tag_38\n      jump\t// in\n        /* \"openzeppelin/ERC20.sol\":3087:3178  function decimals() public view virtual override returns (uint8) {... */\n    tag_7:\n      tag_40\n      tag_41\n      jump\t// in\n    tag_40:\n      mload(0x40)\n      tag_23\n      swap2\n      swap1\n      tag_43\n      jump\t// in\n        /* \"openzeppelin/ERC20.sol\":5947:6203  function increaseAllowance(... */\n    tag_8:\n      tag_25\n      tag_45\n      calldatasize\n      0x04\n      tag_27\n      jump\t// in\n    tag_45:\n      tag_46\n      jump\t// in\n        /* \"MyToken.sol\":330:447  function mint(address to, uint256 value) public onlyOwner returns (bool) {... */\n    tag_9:\n      tag_25\n      tag_49\n      calldatasize\n      0x04\n      tag_27\n      jump\t// in\n    tag_49:\n      tag_50\n      jump\t// in\n        /* \"MyToken.sol\":451:566  function burn(uint256 value) public onlyOwner returns (bool) {... */\n    tag_10:\n      tag_25\n      tag_53\n      calldatasize\n      0x04\n      tag_54\n      jump\t// in\n    tag_53:\n      tag_55\n      jump\t// in\n        /* \"openzeppelin/ERC20.sol\":3402:3541  function balanceOf(... */\n    tag_11:\n      tag_31\n      tag_58\n      calldatasize\n      0x04\n      tag_59\n      jump\t// in\n    tag_58:\n      tag_60\n      jump\t// in\n        /* \"MyToken.sol\":570:773  function burnFrom(address from, uint256 value) public onlyOwner returns (bool) {... */\n    tag_12:\n      tag_25\n      tag_63\n      calldatasize\n      0x04\n      tag_27\n      jump\t// in\n    tag_63:\n      tag_64\n      jump\t// in\n        /* \"MyToken.sol\":122:142  address public owner */\n    tag_13:\n      tag_66\n      tag_67\n      jump\t// in\n    tag_66:\n      mload(0x40)\n      tag_23\n      swap2\n      swap1\n      tag_69\n      jump\t// in\n        /* \"openzeppelin/ERC20.sol\":2361:2463  function symbol() public view virtual override returns (string memory) {... */\n    tag_14:\n      tag_21\n      tag_71\n      jump\t// in\n        /* \"openzeppelin/ERC20.sol\":6690:7173  function decreaseAllowance(... */\n    tag_15:\n      tag_25\n      tag_74\n      calldatasize\n      0x04\n      tag_27\n      jump\t// in\n    tag_74:\n      tag_75\n      jump\t// in\n        /* \"openzeppelin/ERC20.sol\":3737:3948  function transfer(... */\n    tag_16:\n      tag_25\n      tag_78\n      calldatasize\n      0x04\n      tag_27\n      jump\t// in\n    tag_78:\n      tag_79\n      jump\t// in\n        /* \"openzeppelin/ERC20.sol\":4006:4177  function allowance(... */\n    tag_17:\n      tag_31\n      tag_82\n      calldatasize\n      0x04\n      tag_83\n      jump\t// in\n    tag_82:\n      tag_84\n      jump\t// in\n        /* \"openzeppelin/ERC20.sol\":2150:2248  function name() public view virtual override returns (string memory) {... */\n    tag_22:\n        /* \"openzeppelin/ERC20.sol\":2204:2217  string memory */\n      0x60\n        /* \"openzeppelin/ERC20.sol\":2236:2241  _name */\n      0x03\n        /* \"openzeppelin/ERC20.sol\":2229:2241  return _name */\n      dup1\n      sload\n      tag_87\n      swap1\n      tag_88\n      jump\t// in\n    tag_87:\n      dup1\n      0x1f\n      add\n      0x20\n      dup1\n      swap2\n      div\n      mul\n      0x20\n      add\n      mload(0x40)\n      swap1\n      dup2\n      add\n      0x40\n      mstore\n      dup1\n      swap3\n      swap2\n      swap1\n      dup2\n      dup2\n      mstore\n      0x20\n      add\n      dup3\n      dup1\n      sload\n      tag_89\n      swap1\n      tag_88\n      jump\t// in\n    tag_89:\n      dup1\n      iszero\n      tag_90\n      jumpi\n      dup1\n      0x1f\n      lt\n      tag_91\n      jumpi\n      0x0100\n      dup1\n      dup4\n      sload\n      div\n      mul\n      dup4\n      mstore\n      swap2\n      0x20\n      add\n      swap2\n      jump(tag_90)\n    tag_91:\n      dup3\n      add\n      swap2\n      swap1\n      0x00\n      mstore\n      keccak256(0x00, 0x20)\n      swap1\n    tag_92:\n      dup2\n      sload\n      dup2\n      mstore\n      swap1\n      0x01\n      add\n      swap1\n      0x20\n      add\n      dup1\n      dup4\n      gt\n      tag_92\n      jumpi\n      dup3\n      swap1\n      sub\n      0x1f\n      and\n      dup3\n      add\n      swap2\n    tag_90:\n      pop\n      pop\n      pop\n      pop\n      pop\n      swap1\n      pop\n        /* \"openzeppelin/ERC20.sol\":2150:2248  function name() public view virtual override returns (string memory) {... */\n      swap1\n      jump\t// out\n        /* \"openzeppelin/ERC20.sol\":4485:4704  function approve(... */\n    tag_28:\n        /* \"openzeppelin/ERC20.sol\":4590:4594  bool */\n      0x00\n        /* \"openzeppelin/ERC20.sol\":4606:4619  address owner */\n      dup1\n        /* \"openzeppelin/ERC20.sol\":4622:4634  _msgSender() */\n      tag_94\n        /* \"openzeppelin/ERC20.sol\":4622:4632  _msgSender */\n      tag_95\n        /* \"openzeppelin/ERC20.sol\":4622:4634  _msgSender() */\n      jump\t// in\n    tag_94:\n        /* \"openzeppelin/ERC20.sol\":4606:4634  address owner = _msgSender() */\n      swap1\n      pop\n        /* \"openzeppelin/ERC20.sol\":4644:4676  _approve(owner, spender, amount) */\n      tag_96\n        /* \"openzeppelin/ERC20.sol\":4653:4658  owner */\n      dup2\n        /* \"openzeppelin/ERC20.sol\":4660:4667  spender */\n      dup6\n        /* \"openzeppelin/ERC20.sol\":4669:4675  amount */\n      dup6\n        /* \"openzeppelin/ERC20.sol\":4644:4652  _approve */\n      tag_97\n        /* \"openzeppelin/ERC20.sol\":4644:4676  _approve(owner, spender, amount) */\n      jump\t// in\n    tag_96:\n      pop\n        /* \"openzeppelin/ERC20.sol\":4693:4697  true */\n      0x01\n      swap4\n        /* \"openzeppelin/ERC20.sol\":4485:4704  function approve(... */\n      swap3\n      pop\n      pop\n      pop\n      jump\t// out\n        /* \"openzeppelin/ERC20.sol\":3238:3344  function totalSupply() public view virtual override returns (uint256) {... */\n    tag_32:\n        /* \"openzeppelin/ERC20.sol\":3325:3337  _totalSupply */\n      sload(0x02)\n        /* \"openzeppelin/ERC20.sol\":3238:3344  function totalSupply() public view virtual override returns (uint256) {... */\n      swap1\n      jump\t// out\n        /* \"openzeppelin/ERC20.sol\":5266:5552  function transferFrom(... */\n    tag_38:\n        /* \"openzeppelin/ERC20.sol\":5393:5397  bool */\n      0x00\n        /* \"openzeppelin/ERC20.sol\":5409:5424  address spender */\n      dup1\n        /* \"openzeppelin/ERC20.sol\":5427:5439  _msgSender() */\n      tag_100\n        /* \"openzeppelin/ERC20.sol\":5427:5437  _msgSender */\n      tag_95\n        /* \"openzeppelin/ERC20.sol\":5427:5439  _msgSender() */\n      jump\t// in\n    tag_100:\n        /* \"openzeppelin/ERC20.sol\":5409:5439  address spender = _msgSender() */\n      swap1\n      pop\n        /* \"openzeppelin/ERC20.sol\":5449:5487  _spendAllowance(from, spender, amount) */\n      tag_101\n        /* \"openzeppelin/ERC20.sol\":5465:5469  from */\n      dup6\n        /* \"openzeppelin/ERC20.sol\":5471:5478  spender */\n      dup3\n        /* \"openzeppelin/ERC20.sol\":5480:5486  amount */\n      dup6\n        /* \"openzeppelin/ERC20.sol\":5449:5464  _spendAllowance */\n      tag_102\n        /* \"openzeppelin/ERC20.sol\":5449:5487  _spendAllowance(from, spender, amount) */\n      jump\t// in\n    tag_101:\n        /* \"openzeppelin/ERC20.sol\":5497:5524  _transfer(from, to, amount) */\n      tag_103\n        /* \"openzeppelin/ERC20.sol\":5507:5511  from */\n      dup6\n        /* \"openzeppelin/ERC20.sol\":5513:5515  to */\n      dup6\n        /* \"openzeppelin/ERC20.sol\":5517:5523  amount */\n      dup6\n        /* \"openzeppelin/ERC20.sol\":5497:5506  _transfer */\n      tag_104\n        /* \"openzeppelin/ERC20.sol\":5497:5524  _transfer(from, to, amount) */\n      jump\t// in\n    tag_103:\n      pop\n        /* \"openzeppelin/ERC20.sol\":5541:5545  true */\n      0x01\n      swap5\n        /* \"openzeppelin/ERC20.sol\":5266:5552  function transferFrom(... */\n      swap4\n      pop\n      pop\n      pop\n      pop\n      jump\t// out\n        /* \"openzeppelin/ERC20.sol\":3087:3178  function decimals() public view virtual override returns (uint8) {... */\n    tag_41:\n        /* \"openzeppelin/ERC20.sol\":3169:3171  18 */\n      0x12\n        /* \"openzeppelin/ERC20.sol\":3087:3178  function decimals() public view virtual override returns (uint8) {... */\n      swap1\n      jump\t// out\n        /* \"openzeppelin/ERC20.sol\":5947:6203  function increaseAllowance(... */\n    tag_46:\n        /* \"openzeppelin/ERC20.sol\":6057:6061  bool */\n      0x00\n        /* \"openzeppelin/ERC20.sol\":6073:6086  address owner */\n      dup1\n        /* \"openzeppelin/ERC20.sol\":6089:6101  _msgSender() */\n      tag_107\n        /* \"openzeppelin/ERC20.sol\":6089:6099  _msgSender */\n      tag_95\n        /* \"openzeppelin/ERC20.sol\":6089:6101  _msgSender() */\n      jump\t// in\n    tag_107:\n        /* \"openzeppelin/ERC20.sol\":6073:6101  address owner = _msgSender() */\n      swap1\n      pop\n        /* \"openzeppelin/ERC20.sol\":6111:6175  _approve(owner, spender, allowance(owner, spender) + addedValue) */\n      tag_96\n        /* \"openzeppelin/ERC20.sol\":6120:6125  owner */\n      dup2\n        /* \"openzeppelin/ERC20.sol\":6127:6134  spender */\n      dup6\n        /* \"openzeppelin/ERC20.sol\":6164:6174  addedValue */\n      dup6\n        /* \"openzeppelin/ERC20.sol\":6136:6161  allowance(owner, spender) */\n      tag_109\n        /* \"openzeppelin/ERC20.sol\":6146:6151  owner */\n      dup6\n        /* \"openzeppelin/ERC20.sol\":6153:6160  spender */\n      dup10\n        /* \"openzeppelin/ERC20.sol\":6136:6145  allowance */\n      tag_84\n        /* \"openzeppelin/ERC20.sol\":6136:6161  allowance(owner, spender) */\n      jump\t// in\n    tag_109:\n        /* \"openzeppelin/ERC20.sol\":6136:6174  allowance(owner, spender) + addedValue */\n      tag_110\n      swap2\n      swap1\n      tag_111\n      jump\t// in\n    tag_110:\n        /* \"openzeppelin/ERC20.sol\":6111:6119  _approve */\n      tag_97\n        /* \"openzeppelin/ERC20.sol\":6111:6175  _approve(owner, spender, allowance(owner, spender) + addedValue) */\n      jump\t// in\n        /* \"MyToken.sol\":330:447  function mint(address to, uint256 value) public onlyOwner returns (bool) {... */\n    tag_50:\n        /* \"MyToken.sol\":304:309  owner */\n      sload(0x05)\n        /* \"MyToken.sol\":397:401  bool */\n      0x00\n      swap1\n      sub(shl(0xa0, 0x01), 0x01)\n        /* \"MyToken.sol\":304:309  owner */\n      and\n        /* \"MyToken.sol\":288:300  _msgSender() */\n      tag_113\n        /* \"MyToken.sol\":288:298  _msgSender */\n      tag_95\n        /* \"MyToken.sol\":288:300  _msgSender() */\n      jump\t// in\n    tag_113:\n      sub(shl(0xa0, 0x01), 0x01)\n        /* \"MyToken.sol\":288:309  _msgSender() == owner */\n      and\n      eq\n        /* \"MyToken.sol\":280:314  require(_msgSender() == owner, \"\") */\n      tag_114\n      jumpi\n      mload(0x40)\n      shl(0xe5, 0x461bcd)\n      dup2\n      mstore\n      0x04\n      add\n      tag_115\n      swap1\n      tag_116\n      jump\t// in\n    tag_115:\n      mload(0x40)\n      dup1\n      swap2\n      sub\n      swap1\n      revert\n    tag_114:\n        /* \"MyToken.sol\":409:425  _mint(to, value) */\n      tag_118\n        /* \"MyToken.sol\":415:417  to */\n      dup4\n        /* \"MyToken.sol\":419:424  value */\n      dup4\n        /* \"MyToken.sol\":409:414  _mint */\n      tag_119\n        /* \"MyToken.sol\":409:425  _mint(to, value) */\n      jump\t// in\n    tag_118:\n      pop\n        /* \"MyToken.sol\":438:442  true */\n      0x01\n        /* \"MyToken.sol\":330:447  function mint(address to, uint256 value) public onlyOwner returns (bool) {... */\n      swap3\n      swap2\n      pop\n      pop\n      jump\t// out\n        /* \"MyToken.sol\":451:566  function burn(uint256 value) public onlyOwner returns (bool) {... */\n    tag_55:\n        /* \"MyToken.sol\":304:309  owner */\n      sload(0x05)\n        /* \"MyToken.sol\":506:510  bool */\n      0x00\n      swap1\n      sub(shl(0xa0, 0x01), 0x01)\n        /* \"MyToken.sol\":304:309  owner */\n      and\n        /* \"MyToken.sol\":288:300  _msgSender() */\n      tag_121\n        /* \"MyToken.sol\":288:298  _msgSender */\n      tag_95\n        /* \"MyToken.sol\":288:300  _msgSender() */\n      jump\t// in\n    tag_121:\n      sub(shl(0xa0, 0x01), 0x01)\n        /* \"MyToken.sol\":288:309  _msgSender() == owner */\n      and\n      eq\n        /* \"MyToken.sol\":280:314  require(_msgSender() == owner, \"\") */\n      tag_122\n      jumpi\n      mload(0x40)\n      shl(0xe5, 0x461bcd)\n      dup2\n      mstore\n      0x04\n      add\n      tag_115\n      swap1\n      tag_116\n      jump\t// in\n    tag_122:\n        /* \"MyToken.sol\":518:544  _burn(_msgSender(), value) */\n      tag_125\n        /* \"MyToken.sol\":524:536  _msgSender() */\n      tag_126\n        /* \"MyToken.sol\":524:534  _msgSender */\n      tag_95\n        /* \"MyToken.sol\":524:536  _msgSender() */\n      jump\t// in\n    tag_126:\n        /* \"MyToken.sol\":538:543  value */\n      dup4\n        /* \"MyToken.sol\":518:523  _burn */\n      tag_127\n        /* \"MyToken.sol\":518:544  _burn(_msgSender(), value) */\n      jump\t// in\n    tag_125:\n      pop\n        /* \"MyToken.sol\":557:561  true */\n      0x01\n        /* \"MyToken.sol\":320:321  _ */\n    tag_124:\n        /* \"MyToken.sol\":451:566  function burn(uint256 value) public onlyOwner returns (bool) {... */\n      swap2\n      swap1\n      pop\n      jump\t// out\n        /* \"openzeppelin/ERC20.sol\":3402:3541  function balanceOf(... */\n    tag_60:\n      sub(shl(0xa0, 0x01), 0x01)\n        /* \"openzeppelin/ERC20.sol\":3516:3534  _balances[account] */\n      and\n        /* \"openzeppelin/ERC20.sol\":3490:3497  uint256 */\n      0x00\n        /* \"openzeppelin/ERC20.sol\":3516:3534  _balances[account] */\n      swap1\n      dup2\n      mstore\n      0x20\n      dup2\n      swap1\n      mstore\n      0x40\n      swap1\n      keccak256\n      sload\n      swap1\n        /* \"openzeppelin/ERC20.sol\":3402:3541  function balanceOf(... */\n      jump\t// out\n        /* \"MyToken.sol\":570:773  function burnFrom(address from, uint256 value) public onlyOwner returns (bool) {... */\n    tag_64:\n        /* \"MyToken.sol\":304:309  owner */\n      sload(0x05)\n        /* \"MyToken.sol\":643:647  bool */\n      0x00\n      swap1\n      sub(shl(0xa0, 0x01), 0x01)\n        /* \"MyToken.sol\":304:309  owner */\n      and\n        /* \"MyToken.sol\":288:300  _msgSender() */\n      tag_130\n        /* \"MyToken.sol\":288:298  _msgSender */\n      tag_95\n        /* \"MyToken.sol\":288:300  _msgSender() */\n      jump\t// in\n    tag_130:\n      sub(shl(0xa0, 0x01), 0x01)\n        /* \"MyToken.sol\":288:309  _msgSender() == owner */\n      and\n      eq\n        /* \"MyToken.sol\":280:314  require(_msgSender() == owner, \"\") */\n      tag_131\n      jumpi\n      mload(0x40)\n      shl(0xe5, 0x461bcd)\n      dup2\n      mstore\n      0x04\n      add\n      tag_115\n      swap1\n      tag_116\n      jump\t// in\n    tag_131:\n        /* \"MyToken.sol\":696:701  value */\n      dup2\n        /* \"MyToken.sol\":663:692  allowance(from, _msgSender()) */\n      tag_134\n        /* \"MyToken.sol\":673:677  from */\n      dup5\n        /* \"MyToken.sol\":679:691  _msgSender() */\n      tag_82\n        /* \"MyToken.sol\":679:689  _msgSender */\n      tag_95\n        /* \"MyToken.sol\":679:691  _msgSender() */\n      jump\t// in\n        /* \"MyToken.sol\":663:692  allowance(from, _msgSender()) */\n    tag_134:\n        /* \"MyToken.sol\":663:701  allowance(from, _msgSender()) >= value */\n      lt\n      iszero\n        /* \"MyToken.sol\":655:727  require(allowance(from, _msgSender()) >= value, \"INSUFICIENT_ALLOWANCE\") */\n      tag_136\n      jumpi\n      mload(0x40)\n      shl(0xe5, 0x461bcd)\n      dup2\n      mstore\n      0x04\n      add\n      tag_115\n      swap1\n      tag_138\n      jump\t// in\n    tag_136:\n        /* \"MyToken.sol\":733:751  _burn(from, value) */\n      tag_118\n        /* \"MyToken.sol\":739:743  from */\n      dup4\n        /* \"MyToken.sol\":745:750  value */\n      dup4\n        /* \"MyToken.sol\":733:738  _burn */\n      tag_127\n        /* \"MyToken.sol\":733:751  _burn(from, value) */\n      jump\t// in\n        /* \"MyToken.sol\":122:142  address public owner */\n    tag_67:\n      and(sub(shl(0xa0, 0x01), 0x01), sload(0x05))\n      dup2\n      jump\t// out\n        /* \"openzeppelin/ERC20.sol\":2361:2463  function symbol() public view virtual override returns (string memory) {... */\n    tag_71:\n        /* \"openzeppelin/ERC20.sol\":2417:2430  string memory */\n      0x60\n        /* \"openzeppelin/ERC20.sol\":2449:2456  _symbol */\n      0x04\n        /* \"openzeppelin/ERC20.sol\":2442:2456  return _symbol */\n      dup1\n      sload\n      tag_87\n      swap1\n      tag_88\n      jump\t// in\n        /* \"openzeppelin/ERC20.sol\":6690:7173  function decreaseAllowance(... */\n    tag_75:\n        /* \"openzeppelin/ERC20.sol\":6805:6809  bool */\n      0x00\n        /* \"openzeppelin/ERC20.sol\":6821:6834  address owner */\n      dup1\n        /* \"openzeppelin/ERC20.sol\":6837:6849  _msgSender() */\n      tag_147\n        /* \"openzeppelin/ERC20.sol\":6837:6847  _msgSender */\n      tag_95\n        /* \"openzeppelin/ERC20.sol\":6837:6849  _msgSender() */\n      jump\t// in\n    tag_147:\n        /* \"openzeppelin/ERC20.sol\":6821:6849  address owner = _msgSender() */\n      swap1\n      pop\n        /* \"openzeppelin/ERC20.sol\":6859:6883  uint256 currentAllowance */\n      0x00\n        /* \"openzeppelin/ERC20.sol\":6886:6911  allowance(owner, spender) */\n      tag_148\n        /* \"openzeppelin/ERC20.sol\":6896:6901  owner */\n      dup3\n        /* \"openzeppelin/ERC20.sol\":6903:6910  spender */\n      dup7\n        /* \"openzeppelin/ERC20.sol\":6886:6895  allowance */\n      tag_84\n        /* \"openzeppelin/ERC20.sol\":6886:6911  allowance(owner, spender) */\n      jump\t// in\n    tag_148:\n        /* \"openzeppelin/ERC20.sol\":6859:6911  uint256 currentAllowance = allowance(owner, spender) */\n      swap1\n      pop\n        /* \"openzeppelin/ERC20.sol\":6962:6977  subtractedValue */\n      dup4\n        /* \"openzeppelin/ERC20.sol\":6942:6958  currentAllowance */\n      dup2\n        /* \"openzeppelin/ERC20.sol\":6942:6977  currentAllowance >= subtractedValue */\n      lt\n      iszero\n        /* \"openzeppelin/ERC20.sol\":6921:7040  require(... */\n      tag_149\n      jumpi\n      mload(0x40)\n      shl(0xe5, 0x461bcd)\n      dup2\n      mstore\n      0x04\n      add\n      tag_115\n      swap1\n      tag_151\n      jump\t// in\n    tag_149:\n        /* \"openzeppelin/ERC20.sol\":7074:7134  _approve(owner, spender, currentAllowance - subtractedValue) */\n      tag_103\n        /* \"openzeppelin/ERC20.sol\":7083:7088  owner */\n      dup3\n        /* \"openzeppelin/ERC20.sol\":7090:7097  spender */\n      dup7\n        /* \"openzeppelin/ERC20.sol\":7118:7133  subtractedValue */\n      dup7\n        /* \"openzeppelin/ERC20.sol\":7099:7115  currentAllowance */\n      dup5\n        /* \"openzeppelin/ERC20.sol\":7099:7133  currentAllowance - subtractedValue */\n      sub\n        /* \"openzeppelin/ERC20.sol\":7074:7082  _approve */\n      tag_97\n        /* \"openzeppelin/ERC20.sol\":7074:7134  _approve(owner, spender, currentAllowance - subtractedValue) */\n      jump\t// in\n        /* \"openzeppelin/ERC20.sol\":3737:3948  function transfer(... */\n    tag_79:\n        /* \"openzeppelin/ERC20.sol\":3838:3842  bool */\n      0x00\n        /* \"openzeppelin/ERC20.sol\":3854:3867  address owner */\n      dup1\n        /* \"openzeppelin/ERC20.sol\":3870:3882  _msgSender() */\n      tag_154\n        /* \"openzeppelin/ERC20.sol\":3870:3880  _msgSender */\n      tag_95\n        /* \"openzeppelin/ERC20.sol\":3870:3882  _msgSender() */\n      jump\t// in\n    tag_154:\n        /* \"openzeppelin/ERC20.sol\":3854:3882  address owner = _msgSender() */\n      swap1\n      pop\n        /* \"openzeppelin/ERC20.sol\":3892:3920  _transfer(owner, to, amount) */\n      tag_96\n        /* \"openzeppelin/ERC20.sol\":3902:3907  owner */\n      dup2\n        /* \"openzeppelin/ERC20.sol\":3909:3911  to */\n      dup6\n        /* \"openzeppelin/ERC20.sol\":3913:3919  amount */\n      dup6\n        /* \"openzeppelin/ERC20.sol\":3892:3901  _transfer */\n      tag_104\n        /* \"openzeppelin/ERC20.sol\":3892:3920  _transfer(owner, to, amount) */\n      jump\t// in\n        /* \"openzeppelin/ERC20.sol\":4006:4177  function allowance(... */\n    tag_84:\n      sub(shl(0xa0, 0x01), 0x01)\n        /* \"openzeppelin/ERC20.sol\":4143:4161  _allowances[owner] */\n      swap2\n      dup3\n      and\n        /* \"openzeppelin/ERC20.sol\":4117:4124  uint256 */\n      0x00\n        /* \"openzeppelin/ERC20.sol\":4143:4161  _allowances[owner] */\n      swap1\n      dup2\n      mstore\n        /* \"openzeppelin/ERC20.sol\":4143:4154  _allowances */\n      0x01\n        /* \"openzeppelin/ERC20.sol\":4143:4161  _allowances[owner] */\n      0x20\n      swap1\n      dup2\n      mstore\n      0x40\n      dup1\n      dup4\n      keccak256\n        /* \"openzeppelin/ERC20.sol\":4143:4170  _allowances[owner][spender] */\n      swap4\n      swap1\n      swap5\n      and\n      dup3\n      mstore\n      swap2\n      swap1\n      swap2\n      mstore\n      keccak256\n      sload\n      swap1\n        /* \"openzeppelin/ERC20.sol\":4006:4177  function allowance(... */\n      jump\t// out\n        /* \"openzeppelin/utils/Context.sol\":640:736  function _msgSender() internal view virtual returns (address) {... */\n    tag_95:\n        /* \"openzeppelin/utils/Context.sol\":719:729  msg.sender */\n      caller\n        /* \"openzeppelin/utils/Context.sol\":640:736  function _msgSender() internal view virtual returns (address) {... */\n      swap1\n      jump\t// out\n        /* \"openzeppelin/ERC20.sol\":10692:11062  function _approve(... */\n    tag_97:\n      sub(shl(0xa0, 0x01), 0x01)\n        /* \"openzeppelin/ERC20.sol\":10823:10842  owner != address(0) */\n      dup4\n      and\n        /* \"openzeppelin/ERC20.sol\":10815:10883  require(owner != address(0), \"ERC20: approve from the zero address\") */\n      tag_159\n      jumpi\n      mload(0x40)\n      shl(0xe5, 0x461bcd)\n      dup2\n      mstore\n      0x04\n      add\n      tag_115\n      swap1\n      tag_161\n      jump\t// in\n    tag_159:\n      sub(shl(0xa0, 0x01), 0x01)\n        /* \"openzeppelin/ERC20.sol\":10901:10922  spender != address(0) */\n      dup3\n      and\n        /* \"openzeppelin/ERC20.sol\":10893:10961  require(spender != address(0), \"ERC20: approve to the zero address\") */\n      tag_162\n      jumpi\n      mload(0x40)\n      shl(0xe5, 0x461bcd)\n      dup2\n      mstore\n      0x04\n      add\n      tag_115\n      swap1\n      tag_164\n      jump\t// in\n    tag_162:\n      sub(shl(0xa0, 0x01), 0x01)\n        /* \"openzeppelin/ERC20.sol\":10972:10990  _allowances[owner] */\n      dup1\n      dup5\n      and\n      0x00\n      dup2\n      dup2\n      mstore\n        /* \"openzeppelin/ERC20.sol\":10972:10983  _allowances */\n      0x01\n        /* \"openzeppelin/ERC20.sol\":10972:10990  _allowances[owner] */\n      0x20\n      swap1\n      dup2\n      mstore\n      0x40\n      dup1\n      dup4\n      keccak256\n        /* \"openzeppelin/ERC20.sol\":10972:10999  _allowances[owner][spender] */\n      swap5\n      dup8\n      and\n      dup1\n      dup5\n      mstore\n      swap5\n      swap1\n      swap2\n      mstore\n      swap1\n      dup2\n      swap1\n      keccak256\n        /* \"openzeppelin/ERC20.sol\":10972:11008  _allowances[owner][spender] = amount */\n      dup5\n      swap1\n      sstore\n        /* \"openzeppelin/ERC20.sol\":11023:11055  Approval(owner, spender, amount) */\n      mload\n      0x8c5be1e5ebec7d5bd14f71427d1e84f3dd0314c0f7b2291e5b200ac8c7c3b925\n      swap1\n      tag_165\n      swap1\n        /* \"openzeppelin/ERC20.sol\":11002:11008  amount */\n      dup6\n      swap1\n        /* \"openzeppelin/ERC20.sol\":11023:11055  Approval(owner, spender, amount) */\n      tag_34\n      jump\t// in\n    tag_165:\n      mload(0x40)\n      dup1\n      swap2\n      sub\n      swap1\n      log3\n        /* \"openzeppelin/ERC20.sol\":10692:11062  function _approve(... */\n      pop\n      pop\n      pop\n      jump\t// out\n        /* \"openzeppelin/ERC20.sol\":11343:11830  function _spendAllowance(... */\n    tag_102:\n        /* \"openzeppelin/ERC20.sol\":11473:11497  uint256 currentAllowance */\n      0x00\n        /* \"openzeppelin/ERC20.sol\":11500:11525  allowance(owner, spender) */\n      tag_167\n        /* \"openzeppelin/ERC20.sol\":11510:11515  owner */\n      dup5\n        /* \"openzeppelin/ERC20.sol\":11517:11524  spender */\n      dup5\n        /* \"openzeppelin/ERC20.sol\":11500:11509  allowance */\n      tag_84\n        /* \"openzeppelin/ERC20.sol\":11500:11525  allowance(owner, spender) */\n      jump\t// in\n    tag_167:\n        /* \"openzeppelin/ERC20.sol\":11473:11525  uint256 currentAllowance = allowance(owner, spender) */\n      swap1\n      pop\n      not(0x00)\n        /* \"openzeppelin/ERC20.sol\":11539:11555  currentAllowance */\n      dup2\n        /* \"openzeppelin/ERC20.sol\":11539:11576  currentAllowance != type(uint256).max */\n      eq\n        /* \"openzeppelin/ERC20.sol\":11535:11824  if (currentAllowance != type(uint256).max) {... */\n      tag_172\n      jumpi\n        /* \"openzeppelin/ERC20.sol\":11637:11643  amount */\n      dup2\n        /* \"openzeppelin/ERC20.sol\":11617:11633  currentAllowance */\n      dup2\n        /* \"openzeppelin/ERC20.sol\":11617:11643  currentAllowance >= amount */\n      lt\n      iszero\n        /* \"openzeppelin/ERC20.sol\":11592:11706  require(... */\n      tag_169\n      jumpi\n      mload(0x40)\n      shl(0xe5, 0x461bcd)\n      dup2\n      mstore\n      0x04\n      add\n      tag_115\n      swap1\n      tag_171\n      jump\t// in\n    tag_169:\n        /* \"openzeppelin/ERC20.sol\":11748:11799  _approve(owner, spender, currentAllowance - amount) */\n      tag_172\n        /* \"openzeppelin/ERC20.sol\":11757:11762  owner */\n      dup5\n        /* \"openzeppelin/ERC20.sol\":11764:11771  spender */\n      dup5\n        /* \"openzeppelin/ERC20.sol\":11792:11798  amount */\n      dup5\n        /* \"openzeppelin/ERC20.sol\":11773:11789  currentAllowance */\n      dup5\n        /* \"openzeppelin/ERC20.sol\":11773:11798  currentAllowance - amount */\n      sub\n        /* \"openzeppelin/ERC20.sol\":11748:11756  _approve */\n      tag_97\n        /* \"openzeppelin/ERC20.sol\":11748:11799  _approve(owner, spender, currentAllowance - amount) */\n      jump\t// in\n    tag_172:\n        /* \"openzeppelin/ERC20.sol\":11343:11830  function _spendAllowance(... */\n      pop\n      pop\n      pop\n      pop\n      jump\t// out\n        /* \"openzeppelin/ERC20.sol\":7627:8479  function _transfer(... */\n    tag_104:\n      sub(shl(0xa0, 0x01), 0x01)\n        /* \"openzeppelin/ERC20.sol\":7753:7771  from != address(0) */\n      dup4\n      and\n        /* \"openzeppelin/ERC20.sol\":7745:7813  require(from != address(0), \"ERC20: transfer from the zero address\") */\n      tag_174\n      jumpi\n      mload(0x40)\n      shl(0xe5, 0x461bcd)\n      dup2\n      mstore\n      0x04\n      add\n      tag_115\n      swap1\n      tag_176\n      jump\t// in\n    tag_174:\n      sub(shl(0xa0, 0x01), 0x01)\n        /* \"openzeppelin/ERC20.sol\":7831:7847  to != address(0) */\n      dup3\n      and\n        /* \"openzeppelin/ERC20.sol\":7823:7887  require(to != address(0), \"ERC20: transfer to the zero address\") */\n      tag_177\n      jumpi\n      mload(0x40)\n      shl(0xe5, 0x461bcd)\n      dup2\n      mstore\n      0x04\n      add\n      tag_115\n      swap1\n      tag_179\n      jump\t// in\n    tag_177:\n        /* \"openzeppelin/ERC20.sol\":7898:7936  _beforeTokenTransfer(from, to, amount) */\n      tag_180\n        /* \"openzeppelin/ERC20.sol\":7919:7923  from */\n      dup4\n        /* \"openzeppelin/ERC20.sol\":7925:7927  to */\n      dup4\n        /* \"openzeppelin/ERC20.sol\":7929:7935  amount */\n      dup4\n        /* \"openzeppelin/ERC20.sol\":7898:7918  _beforeTokenTransfer */\n      tag_205\n        /* \"openzeppelin/ERC20.sol\":7898:7936  _beforeTokenTransfer(from, to, amount) */\n      jump\t// in\n    tag_180:\n      sub(shl(0xa0, 0x01), 0x01)\n        /* \"openzeppelin/ERC20.sol\":7969:7984  _balances[from] */\n      dup4\n      and\n        /* \"openzeppelin/ERC20.sol\":7947:7966  uint256 fromBalance */\n      0x00\n        /* \"openzeppelin/ERC20.sol\":7969:7984  _balances[from] */\n      swap1\n      dup2\n      mstore\n      0x20\n      dup2\n      swap1\n      mstore\n      0x40\n      swap1\n      keccak256\n      sload\n        /* \"openzeppelin/ERC20.sol\":8015:8036  fromBalance >= amount */\n      dup2\n      dup2\n      lt\n      iszero\n        /* \"openzeppelin/ERC20.sol\":7994:8100  require(... */\n      tag_182\n      jumpi\n      mload(0x40)\n      shl(0xe5, 0x461bcd)\n      dup2\n      mstore\n      0x04\n      add\n      tag_115\n      swap1\n      tag_184\n      jump\t// in\n    tag_182:\n      sub(shl(0xa0, 0x01), 0x01)\n        /* \"openzeppelin/ERC20.sol\":8134:8149  _balances[from] */\n      dup1\n      dup6\n      and\n        /* \"openzeppelin/ERC20.sol\":8134:8143  _balances */\n      0x00\n        /* \"openzeppelin/ERC20.sol\":8134:8149  _balances[from] */\n      dup2\n      dup2\n      mstore\n      0x20\n      dup2\n      swap1\n      mstore\n      0x40\n      dup1\n      dup3\n      keccak256\n        /* \"openzeppelin/ERC20.sol\":8152:8172  fromBalance - amount */\n      dup7\n      dup7\n      sub\n        /* \"openzeppelin/ERC20.sol\":8134:8172  _balances[from] = fromBalance - amount */\n      swap1\n      sstore\n        /* \"openzeppelin/ERC20.sol\":8349:8362  _balances[to] */\n      swap3\n      dup7\n      and\n      dup1\n      dup3\n      mstore\n      swap1\n      dup4\n      swap1\n      keccak256\n        /* \"openzeppelin/ERC20.sol\":8349:8372  _balances[to] += amount */\n      dup1\n      sload\n      dup7\n      add\n      swap1\n      sstore\n        /* \"openzeppelin/ERC20.sol\":8398:8424  Transfer(from, to, amount) */\n      swap2\n      mload\n      0xddf252ad1be2c89b69c2b068fc378daa952ba7f163c4a11628f55a4df523b3ef\n      swap1\n      tag_185\n      swap1\n        /* \"openzeppelin/ERC20.sol\":8166:8172  amount */\n      dup7\n      swap1\n        /* \"openzeppelin/ERC20.sol\":8398:8424  Transfer(from, to, amount) */\n      tag_34\n      jump\t// in\n    tag_185:\n      mload(0x40)\n      dup1\n      swap2\n      sub\n      swap1\n      log3\n        /* \"openzeppelin/ERC20.sol\":8435:8472  _afterTokenTransfer(from, to, amount) */\n      tag_172\n        /* \"openzeppelin/ERC20.sol\":8455:8459  from */\n      dup5\n        /* \"openzeppelin/ERC20.sol\":8461:8463  to */\n      dup5\n        /* \"openzeppelin/ERC20.sol\":8465:8471  amount */\n      dup5\n        /* \"openzeppelin/ERC20.sol\":8435:8454  _afterTokenTransfer */\n      tag_205\n        /* \"openzeppelin/ERC20.sol\":8435:8472  _afterTokenTransfer(from, to, amount) */\n      jump\t// in\n        /* \"openzeppelin/ERC20.sol\":8755:9290  function _mint(address account, uint256 amount) internal virtual {... */\n    tag_119:\n      sub(shl(0xa0, 0x01), 0x01)\n        /* \"openzeppelin/ERC20.sol\":8838:8859  account != address(0) */\n      dup3\n      and\n        /* \"openzeppelin/ERC20.sol\":8830:8895  require(account != address(0), \"ERC20: mint to the zero address\") */\n      tag_189\n      jumpi\n      mload(0x40)\n      shl(0xe5, 0x461bcd)\n      dup2\n      mstore\n      0x04\n      add\n      tag_115\n      swap1\n      tag_191\n      jump\t// in\n    tag_189:\n        /* \"openzeppelin/ERC20.sol\":8906:8955  _beforeTokenTransfer(address(0), account, amount) */\n      tag_192\n        /* \"openzeppelin/ERC20.sol\":8935:8936  0 */\n      0x00\n        /* \"openzeppelin/ERC20.sol\":8939:8946  account */\n      dup4\n        /* \"openzeppelin/ERC20.sol\":8948:8954  amount */\n      dup4\n        /* \"openzeppelin/ERC20.sol\":8906:8926  _beforeTokenTransfer */\n      tag_205\n        /* \"openzeppelin/ERC20.sol\":8906:8955  _beforeTokenTransfer(address(0), account, amount) */\n      jump\t// in\n    tag_192:\n        /* \"openzeppelin/ERC20.sol\":8982:8988  amount */\n      dup1\n        /* \"openzeppelin/ERC20.sol\":8966:8978  _totalSupply */\n      0x02\n      0x00\n        /* \"openzeppelin/ERC20.sol\":8966:8988  _totalSupply += amount */\n      dup3\n      dup3\n      sload\n      tag_193\n      swap2\n      swap1\n      tag_111\n      jump\t// in\n    tag_193:\n      swap1\n      swap2\n      sstore\n      pop\n      pop\n      sub(shl(0xa0, 0x01), 0x01)\n        /* \"openzeppelin/ERC20.sol\":9134:9152  _balances[account] */\n      dup3\n      and\n        /* \"openzeppelin/ERC20.sol\":9134:9143  _balances */\n      0x00\n        /* \"openzeppelin/ERC20.sol\":9134:9152  _balances[account] */\n      dup2\n      dup2\n      mstore\n      0x20\n      dup2\n      swap1\n      mstore\n      0x40\n      dup1\n      dup3\n      keccak256\n        /* \"openzeppelin/ERC20.sol\":9134:9162  _balances[account] += amount */\n      dup1\n      sload\n      dup6\n      add\n      swap1\n      sstore\n        /* \"openzeppelin/ERC20.sol\":9187:9224  Transfer(address(0), account, amount) */\n      mload\n      0xddf252ad1be2c89b69c2b068fc378daa952ba7f163c4a11628f55a4df523b3ef\n      swap1\n      tag_194\n      swap1\n        /* \"openzeppelin/ERC20.sol\":9156:9162  amount */\n      dup6\n      swap1\n        /* \"openzeppelin/ERC20.sol\":9187:9224  Transfer(address(0), account, amount) */\n      tag_34\n      jump\t// in\n    tag_194:\n      mload(0x40)\n      dup1\n      swap2\n      sub\n      swap1\n      log3\n        /* \"openzeppelin/ERC20.sol\":9235:9283  _afterTokenTransfer(address(0), account, amount) */\n      tag_195\n        /* \"openzeppelin/ERC20.sol\":9263:9264  0 */\n      0x00\n        /* \"openzeppelin/ERC20.sol\":9267:9274  account */\n      dup4\n        /* \"openzeppelin/ERC20.sol\":9276:9282  amount */\n      dup4\n        /* \"openzeppelin/ERC20.sol\":9235:9254  _afterTokenTransfer */\n      tag_205\n        /* \"openzeppelin/ERC20.sol\":9235:9283  _afterTokenTransfer(address(0), account, amount) */\n      jump\t// in\n    tag_195:\n        /* \"openzeppelin/ERC20.sol\":8755:9290  function _mint(address account, uint256 amount) internal virtual {... */\n      pop\n      pop\n      jump\t// out\n        /* \"openzeppelin/ERC20.sol\":9610:10269  function _burn(address account, uint256 amount) internal virtual {... */\n    tag_127:\n      sub(shl(0xa0, 0x01), 0x01)\n        /* \"openzeppelin/ERC20.sol\":9693:9714  account != address(0) */\n      dup3\n      and\n        /* \"openzeppelin/ERC20.sol\":9685:9752  require(account != address(0), \"ERC20: burn from the zero address\") */\n      tag_197\n      jumpi\n      mload(0x40)\n      shl(0xe5, 0x461bcd)\n      dup2\n      mstore\n      0x04\n      add\n      tag_115\n      swap1\n      tag_199\n      jump\t// in\n    tag_197:\n        /* \"openzeppelin/ERC20.sol\":9763:9812  _beforeTokenTransfer(account, address(0), amount) */\n      tag_200\n        /* \"openzeppelin/ERC20.sol\":9784:9791  account */\n      dup3\n        /* \"openzeppelin/ERC20.sol\":9801:9802  0 */\n      0x00\n        /* \"openzeppelin/ERC20.sol\":9805:9811  amount */\n      dup4\n        /* \"openzeppelin/ERC20.sol\":9763:9783  _beforeTokenTransfer */\n      tag_205\n        /* \"openzeppelin/ERC20.sol\":9763:9812  _beforeTokenTransfer(account, address(0), amount) */\n      jump\t// in\n    tag_200:\n      sub(shl(0xa0, 0x01), 0x01)\n        /* \"openzeppelin/ERC20.sol\":9848:9866  _balances[account] */\n      dup3\n      and\n        /* \"openzeppelin/ERC20.sol\":9823:9845  uint256 accountBalance */\n      0x00\n        /* \"openzeppelin/ERC20.sol\":9848:9866  _balances[account] */\n      swap1\n      dup2\n      mstore\n      0x20\n      dup2\n      swap1\n      mstore\n      0x40\n      swap1\n      keccak256\n      sload\n        /* \"openzeppelin/ERC20.sol\":9884:9908  accountBalance >= amount */\n      dup2\n      dup2\n      lt\n      iszero\n        /* \"openzeppelin/ERC20.sol\":9876:9947  require(accountBalance >= amount, \"ERC20: burn amount exceeds balance\") */\n      tag_201\n      jumpi\n      mload(0x40)\n      shl(0xe5, 0x461bcd)\n      dup2\n      mstore\n      0x04\n      add\n      tag_115\n      swap1\n      tag_203\n      jump\t// in\n    tag_201:\n      sub(shl(0xa0, 0x01), 0x01)\n        /* \"openzeppelin/ERC20.sol\":9981:9999  _balances[account] */\n      dup4\n      and\n        /* \"openzeppelin/ERC20.sol\":9981:9990  _balances */\n      0x00\n        /* \"openzeppelin/ERC20.sol\":9981:9999  _balances[account] */\n      dup2\n      dup2\n      mstore\n      0x20\n      dup2\n      swap1\n      mstore\n      0x40\n      dup1\n      dup3\n      keccak256\n        /* \"openzeppelin/ERC20.sol\":10002:10025  accountBalance - amount */\n      dup6\n      dup6\n      sub\n        /* \"openzeppelin/ERC20.sol\":9981:10025  _balances[account] = accountBalance - amount */\n      swap1\n      sstore\n        /* \"openzeppelin/ERC20.sol\":10118:10130  _totalSupply */\n      0x02\n        /* \"openzeppelin/ERC20.sol\":10118:10140  _totalSupply -= amount */\n      dup1\n      sload\n      dup7\n      swap1\n      sub\n      swap1\n      sstore\n        /* \"openzeppelin/ERC20.sol\":10166:10203  Transfer(account, address(0), amount) */\n      mload\n        /* \"openzeppelin/ERC20.sol\":9981:9990  _balances */\n      swap1\n      swap2\n        /* \"openzeppelin/ERC20.sol\":9981:9999  _balances[account] */\n      swap1\n        /* \"openzeppelin/ERC20.sol\":10166:10203  Transfer(account, address(0), amount) */\n      0xddf252ad1be2c89b69c2b068fc378daa952ba7f163c4a11628f55a4df523b3ef\n      swap1\n      tag_204\n      swap1\n        /* \"openzeppelin/ERC20.sol\":10019:10025  amount */\n      dup7\n      swap1\n        /* \"openzeppelin/ERC20.sol\":10166:10203  Transfer(account, address(0), amount) */\n      tag_34\n      jump\t// in\n    tag_204:\n      mload(0x40)\n      dup1\n      swap2\n      sub\n      swap1\n      log3\n        /* \"openzeppelin/ERC20.sol\":10214:10262  _afterTokenTransfer(account, address(0), amount) */\n      tag_205\n        /* \"openzeppelin/ERC20.sol\":10234:10241  account */\n      dup4\n        /* \"openzeppelin/ERC20.sol\":10251:10252  0 */\n      0x00\n        /* \"openzeppelin/ERC20.sol\":10255:10261  amount */\n      dup5\n        /* \"openzeppelin/ERC20.sol\":10214:10262  _afterTokenTransfer(account, address(0), amount) */\n    tag_205:\n        /* \"openzeppelin/ERC20.sol\":9610:10269  function _burn(address account, uint256 amount) internal virtual {... */\n      pop\n      pop\n      pop\n      jump\t// out\n        /* \"#utility.yul\":14:189   */\n    tag_209:\n        /* \"#utility.yul\":84:104   */\n      dup1\n      calldataload\n      sub(shl(0xa0, 0x01), 0x01)\n        /* \"#utility.yul\":133:164   */\n      dup2\n      and\n        /* \"#utility.yul\":123:165   */\n      dup2\n      eq\n        /* \"#utility.yul\":113:115   */\n      tag_124\n      jumpi\n        /* \"#utility.yul\":179:180   */\n      0x00\n        /* \"#utility.yul\":176:177   */\n      dup1\n        /* \"#utility.yul\":169:181   */\n      revert\n        /* \"#utility.yul\":194:392   */\n    tag_59:\n      0x00\n        /* \"#utility.yul\":306:308   */\n      0x20\n        /* \"#utility.yul\":294:303   */\n      dup3\n        /* \"#utility.yul\":285:292   */\n      dup5\n        /* \"#utility.yul\":281:304   */\n      sub\n        /* \"#utility.yul\":277:309   */\n      slt\n        /* \"#utility.yul\":274:276   */\n      iszero\n      tag_213\n      jumpi\n        /* \"#utility.yul\":327:333   */\n      dup1\n        /* \"#utility.yul\":319:325   */\n      dup2\n        /* \"#utility.yul\":312:334   */\n      revert\n        /* \"#utility.yul\":274:276   */\n    tag_213:\n        /* \"#utility.yul\":355:386   */\n      tag_214\n        /* \"#utility.yul\":376:385   */\n      dup3\n        /* \"#utility.yul\":355:386   */\n      tag_209\n      jump\t// in\n    tag_214:\n        /* \"#utility.yul\":345:386   */\n      swap4\n        /* \"#utility.yul\":264:392   */\n      swap3\n      pop\n      pop\n      pop\n      jump\t// out\n        /* \"#utility.yul\":397:671   */\n    tag_83:\n      0x00\n      dup1\n        /* \"#utility.yul\":526:528   */\n      0x40\n        /* \"#utility.yul\":514:523   */\n      dup4\n        /* \"#utility.yul\":505:512   */\n      dup6\n        /* \"#utility.yul\":501:524   */\n      sub\n        /* \"#utility.yul\":497:529   */\n      slt\n        /* \"#utility.yul\":494:496   */\n      iszero\n      tag_216\n      jumpi\n        /* \"#utility.yul\":547:553   */\n      dup1\n        /* \"#utility.yul\":539:545   */\n      dup2\n        /* \"#utility.yul\":532:554   */\n      revert\n        /* \"#utility.yul\":494:496   */\n    tag_216:\n        /* \"#utility.yul\":575:606   */\n      tag_217\n        /* \"#utility.yul\":596:605   */\n      dup4\n        /* \"#utility.yul\":575:606   */\n      tag_209\n      jump\t// in\n    tag_217:\n        /* \"#utility.yul\":565:606   */\n      swap2\n      pop\n        /* \"#utility.yul\":625:665   */\n      tag_218\n        /* \"#utility.yul\":661:663   */\n      0x20\n        /* \"#utility.yul\":650:659   */\n      dup5\n        /* \"#utility.yul\":646:664   */\n      add\n        /* \"#utility.yul\":625:665   */\n      tag_209\n      jump\t// in\n    tag_218:\n        /* \"#utility.yul\":615:665   */\n      swap1\n      pop\n        /* \"#utility.yul\":484:671   */\n      swap3\n      pop\n      swap3\n      swap1\n      pop\n      jump\t// out\n        /* \"#utility.yul\":676:1018   */\n    tag_37:\n      0x00\n      dup1\n      0x00\n        /* \"#utility.yul\":822:824   */\n      0x60\n        /* \"#utility.yul\":810:819   */\n      dup5\n        /* \"#utility.yul\":801:808   */\n      dup7\n        /* \"#utility.yul\":797:820   */\n      sub\n        /* \"#utility.yul\":793:825   */\n      slt\n        /* \"#utility.yul\":790:792   */\n      iszero\n      tag_220\n      jumpi\n        /* \"#utility.yul\":843:849   */\n      dup1\n        /* \"#utility.yul\":835:841   */\n      dup2\n        /* \"#utility.yul\":828:850   */\n      revert\n        /* \"#utility.yul\":790:792   */\n    tag_220:\n        /* \"#utility.yul\":871:902   */\n      tag_221\n        /* \"#utility.yul\":892:901   */\n      dup5\n        /* \"#utility.yul\":871:902   */\n      tag_209\n      jump\t// in\n    tag_221:\n        /* \"#utility.yul\":861:902   */\n      swap3\n      pop\n        /* \"#utility.yul\":921:961   */\n      tag_222\n        /* \"#utility.yul\":957:959   */\n      0x20\n        /* \"#utility.yul\":946:955   */\n      dup6\n        /* \"#utility.yul\":942:960   */\n      add\n        /* \"#utility.yul\":921:961   */\n      tag_209\n      jump\t// in\n    tag_222:\n        /* \"#utility.yul\":911:961   */\n      swap2\n      pop\n        /* \"#utility.yul\":1008:1010   */\n      0x40\n        /* \"#utility.yul\":997:1006   */\n      dup5\n        /* \"#utility.yul\":993:1011   */\n      add\n        /* \"#utility.yul\":980:1012   */\n      calldataload\n        /* \"#utility.yul\":970:1012   */\n      swap1\n      pop\n        /* \"#utility.yul\":780:1018   */\n      swap3\n      pop\n      swap3\n      pop\n      swap3\n      jump\t// out\n        /* \"#utility.yul\":1023:1289   */\n    tag_27:\n      0x00\n      dup1\n        /* \"#utility.yul\":1152:1154   */\n      0x40\n        /* \"#utility.yul\":1140:1149   */\n      dup4\n        /* \"#utility.yul\":1131:1138   */\n      dup6\n        /* \"#utility.yul\":1127:1150   */\n      sub\n        /* \"#utility.yul\":1123:1155   */\n      slt\n        /* \"#utility.yul\":1120:1122   */\n      iszero\n      tag_224\n      jumpi\n        /* \"#utility.yul\":1173:1179   */\n      dup2\n        /* \"#utility.yul\":1165:1171   */\n      dup3\n        /* \"#utility.yul\":1158:1180   */\n      revert\n        /* \"#utility.yul\":1120:1122   */\n    tag_224:\n        /* \"#utility.yul\":1201:1232   */\n      tag_225\n        /* \"#utility.yul\":1222:1231   */\n      dup4\n        /* \"#utility.yul\":1201:1232   */\n      tag_209\n      jump\t// in\n    tag_225:\n        /* \"#utility.yul\":1191:1232   */\n      swap5\n        /* \"#utility.yul\":1279:1281   */\n      0x20\n        /* \"#utility.yul\":1264:1282   */\n      swap4\n      swap1\n      swap4\n      add\n        /* \"#utility.yul\":1251:1283   */\n      calldataload\n      swap4\n      pop\n      pop\n      pop\n        /* \"#utility.yul\":1110:1289   */\n      jump\t// out\n        /* \"#utility.yul\":1294:1484   */\n    tag_54:\n      0x00\n        /* \"#utility.yul\":1406:1408   */\n      0x20\n        /* \"#utility.yul\":1394:1403   */\n      dup3\n        /* \"#utility.yul\":1385:1392   */\n      dup5\n        /* \"#utility.yul\":1381:1404   */\n      sub\n        /* \"#utility.yul\":1377:1409   */\n      slt\n        /* \"#utility.yul\":1374:1376   */\n      iszero\n      tag_227\n      jumpi\n        /* \"#utility.yul\":1427:1433   */\n      dup1\n        /* \"#utility.yul\":1419:1425   */\n      dup2\n        /* \"#utility.yul\":1412:1434   */\n      revert\n        /* \"#utility.yul\":1374:1376   */\n    tag_227:\n      pop\n        /* \"#utility.yul\":1455:1478   */\n      calldataload\n      swap2\n        /* \"#utility.yul\":1364:1484   */\n      swap1\n      pop\n      jump\t// out\n        /* \"#utility.yul\":1489:1692   */\n    tag_69:\n      sub(shl(0xa0, 0x01), 0x01)\n        /* \"#utility.yul\":1653:1685   */\n      swap2\n      swap1\n      swap2\n      and\n        /* \"#utility.yul\":1635:1686   */\n      dup2\n      mstore\n        /* \"#utility.yul\":1623:1625   */\n      0x20\n        /* \"#utility.yul\":1608:1626   */\n      add\n      swap1\n        /* \"#utility.yul\":1590:1692   */\n      jump\t// out\n        /* \"#utility.yul\":1697:1884   */\n    tag_30:\n        /* \"#utility.yul\":1862:1876   */\n      swap1\n      iszero\n        /* \"#utility.yul\":1855:1877   */\n      iszero\n        /* \"#utility.yul\":1837:1878   */\n      dup2\n      mstore\n        /* \"#utility.yul\":1825:1827   */\n      0x20\n        /* \"#utility.yul\":1810:1828   */\n      add\n      swap1\n        /* \"#utility.yul\":1792:1884   */\n      jump\t// out\n        /* \"#utility.yul\":1889:2492   */\n    tag_24:\n      0x00\n        /* \"#utility.yul\":2030:2032   */\n      0x20\n        /* \"#utility.yul\":2059:2061   */\n      dup1\n        /* \"#utility.yul\":2048:2057   */\n      dup4\n        /* \"#utility.yul\":2041:2062   */\n      mstore\n        /* \"#utility.yul\":2091:2097   */\n      dup4\n        /* \"#utility.yul\":2085:2098   */\n      mload\n        /* \"#utility.yul\":2134:2140   */\n      dup1\n        /* \"#utility.yul\":2129:2131   */\n      dup3\n        /* \"#utility.yul\":2118:2127   */\n      dup6\n        /* \"#utility.yul\":2114:2132   */\n      add\n        /* \"#utility.yul\":2107:2141   */\n      mstore\n        /* \"#utility.yul\":2159:2163   */\n      dup3\n        /* \"#utility.yul\":2172:2312   */\n    tag_231:\n        /* \"#utility.yul\":2186:2192   */\n      dup2\n        /* \"#utility.yul\":2183:2184   */\n      dup2\n        /* \"#utility.yul\":2180:2193   */\n      lt\n        /* \"#utility.yul\":2172:2312   */\n      iszero\n      tag_233\n      jumpi\n        /* \"#utility.yul\":2281:2295   */\n      dup6\n      dup2\n      add\n        /* \"#utility.yul\":2277:2300   */\n      dup4\n      add\n        /* \"#utility.yul\":2271:2301   */\n      mload\n        /* \"#utility.yul\":2247:2264   */\n      dup6\n      dup3\n      add\n        /* \"#utility.yul\":2266:2268   */\n      0x40\n        /* \"#utility.yul\":2243:2269   */\n      add\n        /* \"#utility.yul\":2236:2302   */\n      mstore\n        /* \"#utility.yul\":2201:2211   */\n      dup3\n      add\n        /* \"#utility.yul\":2172:2312   */\n      jump(tag_231)\n    tag_233:\n        /* \"#utility.yul\":2330:2336   */\n      dup2\n        /* \"#utility.yul\":2327:2328   */\n      dup2\n        /* \"#utility.yul\":2324:2337   */\n      gt\n        /* \"#utility.yul\":2321:2323   */\n      iszero\n      tag_234\n      jumpi\n        /* \"#utility.yul\":2400:2404   */\n      dup4\n        /* \"#utility.yul\":2395:2397   */\n      0x40\n        /* \"#utility.yul\":2386:2392   */\n      dup4\n        /* \"#utility.yul\":2375:2384   */\n      dup8\n        /* \"#utility.yul\":2371:2393   */\n      add\n        /* \"#utility.yul\":2367:2398   */\n      add\n        /* \"#utility.yul\":2360:2405   */\n      mstore\n        /* \"#utility.yul\":2321:2323   */\n    tag_234:\n      pop\n        /* \"#utility.yul\":2476:2478   */\n      0x1f\n        /* \"#utility.yul\":2455:2470   */\n      add\n      not(0x1f)\n        /* \"#utility.yul\":2451:2480   */\n      and\n        /* \"#utility.yul\":2436:2481   */\n      swap3\n      swap1\n      swap3\n      add\n        /* \"#utility.yul\":2483:2485   */\n      0x40\n        /* \"#utility.yul\":2432:2486   */\n      add\n      swap4\n        /* \"#utility.yul\":2010:2492   */\n      swap3\n      pop\n      pop\n      pop\n      jump\t// out\n        /* \"#utility.yul\":2497:2896   */\n    tag_179:\n        /* \"#utility.yul\":2699:2701   */\n      0x20\n        /* \"#utility.yul\":2681:2702   */\n      dup1\n      dup3\n      mstore\n        /* \"#utility.yul\":2738:2740   */\n      0x23\n        /* \"#utility.yul\":2718:2736   */\n      swap1\n      dup3\n      add\n        /* \"#utility.yul\":2711:2741   */\n      mstore\n        /* \"#utility.yul\":2777:2811   */\n      0x45524332303a207472616e7366657220746f20746865207a65726f2061646472\n        /* \"#utility.yul\":2772:2774   */\n      0x40\n        /* \"#utility.yul\":2757:2775   */\n      dup3\n      add\n        /* \"#utility.yul\":2750:2812   */\n      mstore\n      shl(0xe8, 0x657373)\n        /* \"#utility.yul\":2843:2845   */\n      0x60\n        /* \"#utility.yul\":2828:2846   */\n      dup3\n      add\n        /* \"#utility.yul\":2821:2854   */\n      mstore\n        /* \"#utility.yul\":2886:2889   */\n      0x80\n        /* \"#utility.yul\":2871:2890   */\n      add\n      swap1\n        /* \"#utility.yul\":2671:2896   */\n      jump\t// out\n        /* \"#utility.yul\":2901:3299   */\n    tag_203:\n        /* \"#utility.yul\":3103:3105   */\n      0x20\n        /* \"#utility.yul\":3085:3106   */\n      dup1\n      dup3\n      mstore\n        /* \"#utility.yul\":3142:3144   */\n      0x22\n        /* \"#utility.yul\":3122:3140   */\n      swap1\n      dup3\n      add\n        /* \"#utility.yul\":3115:3145   */\n      mstore\n        /* \"#utility.yul\":3181:3215   */\n      0x45524332303a206275726e20616d6f756e7420657863656564732062616c616e\n        /* \"#utility.yul\":3176:3178   */\n      0x40\n        /* \"#utility.yul\":3161:3179   */\n      dup3\n      add\n        /* \"#utility.yul\":3154:3216   */\n      mstore\n      shl(0xf0, 0x6365)\n        /* \"#utility.yul\":3247:3249   */\n      0x60\n        /* \"#utility.yul\":3232:3250   */\n      dup3\n      add\n        /* \"#utility.yul\":3225:3257   */\n      mstore\n        /* \"#utility.yul\":3289:3292   */\n      0x80\n        /* \"#utility.yul\":3274:3293   */\n      add\n      swap1\n        /* \"#utility.yul\":3075:3299   */\n      jump\t// out\n        /* \"#utility.yul\":3304:3702   */\n    tag_164:\n        /* \"#utility.yul\":3506:3508   */\n      0x20\n        /* \"#utility.yul\":3488:3509   */\n      dup1\n      dup3\n      mstore\n        /* \"#utility.yul\":3545:3547   */\n      0x22\n        /* \"#utility.yul\":3525:3543   */\n      swap1\n      dup3\n      add\n        /* \"#utility.yul\":3518:3548   */\n      mstore\n        /* \"#utility.yul\":3584:3618   */\n      0x45524332303a20617070726f766520746f20746865207a65726f206164647265\n        /* \"#utility.yul\":3579:3581   */\n      0x40\n        /* \"#utility.yul\":3564:3582   */\n      dup3\n      add\n        /* \"#utility.yul\":3557:3619   */\n      mstore\n      shl(0xf0, 0x7373)\n        /* \"#utility.yul\":3650:3652   */\n      0x60\n        /* \"#utility.yul\":3635:3653   */\n      dup3\n      add\n        /* \"#utility.yul\":3628:3660   */\n      mstore\n        /* \"#utility.yul\":3692:3695   */\n      0x80\n        /* \"#utility.yul\":3677:3696   */\n      add\n      swap1\n        /* \"#utility.yul\":3478:3702   */\n      jump\t// out\n        /* \"#utility.yul\":3707:4052   */\n    tag_138:\n        /* \"#utility.yul\":3909:3911   */\n      0x20\n        /* \"#utility.yul\":3891:3912   */\n      dup1\n      dup3\n      mstore\n        /* \"#utility.yul\":3948:3950   */\n      0x15\n        /* \"#utility.yul\":3928:3946   */\n      swap1\n      dup3\n      add\n        /* \"#utility.yul\":3921:3951   */\n      mstore\n      shl(0x58, 0x494e535546494349454e545f414c4c4f57414e4345)\n        /* \"#utility.yul\":3982:3984   */\n      0x40\n        /* \"#utility.yul\":3967:3985   */\n      dup3\n      add\n        /* \"#utility.yul\":3960:4011   */\n      mstore\n        /* \"#utility.yul\":4043:4045   */\n      0x60\n        /* \"#utility.yul\":4028:4046   */\n      add\n      swap1\n        /* \"#utility.yul\":3881:4052   */\n      jump\t// out\n        /* \"#utility.yul\":4057:4410   */\n    tag_171:\n        /* \"#utility.yul\":4259:4261   */\n      0x20\n        /* \"#utility.yul\":4241:4262   */\n      dup1\n      dup3\n      mstore\n        /* \"#utility.yul\":4298:4300   */\n      0x1d\n        /* \"#utility.yul\":4278:4296   */\n      swap1\n      dup3\n      add\n        /* \"#utility.yul\":4271:4301   */\n      mstore\n        /* \"#utility.yul\":4337:4368   */\n      0x45524332303a20696e73756666696369656e7420616c6c6f77616e6365000000\n        /* \"#utility.yul\":4332:4334   */\n      0x40\n        /* \"#utility.yul\":4317:4335   */\n      dup3\n      add\n        /* \"#utility.yul\":4310:4369   */\n      mstore\n        /* \"#utility.yul\":4401:4403   */\n      0x60\n        /* \"#utility.yul\":4386:4404   */\n      add\n      swap1\n        /* \"#utility.yul\":4231:4410   */\n      jump\t// out\n        /* \"#utility.yul\":4415:4817   */\n    tag_184:\n        /* \"#utility.yul\":4617:4619   */\n      0x20\n        /* \"#utility.yul\":4599:4620   */\n      dup1\n      dup3\n      mstore\n        /* \"#utility.yul\":4656:4658   */\n      0x26\n        /* \"#utility.yul\":4636:4654   */\n      swap1\n      dup3\n      add\n        /* \"#utility.yul\":4629:4659   */\n      mstore\n        /* \"#utility.yul\":4695:4729   */\n      0x45524332303a207472616e7366657220616d6f756e7420657863656564732062\n        /* \"#utility.yul\":4690:4692   */\n      0x40\n        /* \"#utility.yul\":4675:4693   */\n      dup3\n      add\n        /* \"#utility.yul\":4668:4730   */\n      mstore\n      shl(0xd0, 0x616c616e6365)\n        /* \"#utility.yul\":4761:4763   */\n      0x60\n        /* \"#utility.yul\":4746:4764   */\n      dup3\n      add\n        /* \"#utility.yul\":4739:4775   */\n      mstore\n        /* \"#utility.yul\":4807:4810   */\n      0x80\n        /* \"#utility.yul\":4792:4811   */\n      add\n      swap1\n        /* \"#utility.yul\":4589:4817   */\n      jump\t// out\n        /* \"#utility.yul\":4822:5219   */\n    tag_199:\n        /* \"#utility.yul\":5024:5026   */\n      0x20\n        /* \"#utility.yul\":5006:5027   */\n      dup1\n      dup3\n      mstore\n        /* \"#utility.yul\":5063:5065   */\n      0x21\n        /* \"#utility.yul\":5043:5061   */\n      swap1\n      dup3\n      add\n        /* \"#utility.yul\":5036:5066   */\n      mstore\n        /* \"#utility.yul\":5102:5136   */\n      0x45524332303a206275726e2066726f6d20746865207a65726f20616464726573\n        /* \"#utility.yul\":5097:5099   */\n      0x40\n        /* \"#utility.yul\":5082:5100   */\n      dup3\n      add\n        /* \"#utility.yul\":5075:5137   */\n      mstore\n      shl(0xf8, 0x73)\n        /* \"#utility.yul\":5168:5170   */\n      0x60\n        /* \"#utility.yul\":5153:5171   */\n      dup3\n      add\n        /* \"#utility.yul\":5146:5177   */\n      mstore\n        /* \"#utility.yul\":5209:5212   */\n      0x80\n        /* \"#utility.yul\":5194:5213   */\n      add\n      swap1\n        /* \"#utility.yul\":4996:5219   */\n      jump\t// out\n        /* \"#utility.yul\":5224:5625   */\n    tag_176:\n        /* \"#utility.yul\":5426:5428   */\n      0x20\n        /* \"#utility.yul\":5408:5429   */\n      dup1\n      dup3\n      mstore\n        /* \"#utility.yul\":5465:5467   */\n      0x25\n        /* \"#utility.yul\":5445:5463   */\n      swap1\n      dup3\n      add\n        /* \"#utility.yul\":5438:5468   */\n      mstore\n        /* \"#utility.yul\":5504:5538   */\n      0x45524332303a207472616e736665722066726f6d20746865207a65726f206164\n        /* \"#utility.yul\":5499:5501   */\n      0x40\n        /* \"#utility.yul\":5484:5502   */\n      dup3\n      add\n        /* \"#utility.yul\":5477:5539   */\n      mstore\n      shl(0xd8, 0x6472657373)\n        /* \"#utility.yul\":5570:5572   */\n      0x60\n        /* \"#utility.yul\":5555:5573   */\n      dup3\n      add\n        /* \"#utility.yul\":5548:5583   */\n      mstore\n        /* \"#utility.yul\":5615:5618   */\n      0x80\n        /* \"#utility.yul\":5600:5619   */\n      add\n      swap1\n        /* \"#utility.yul\":5398:5625   */\n      jump\t// out\n        /* \"#utility.yul\":5630:5917   */\n    tag_116:\n        /* \"#utility.yul\":5832:5834   */\n      0x20\n        /* \"#utility.yul\":5814:5835   */\n      dup1\n      dup3\n      mstore\n        /* \"#utility.yul\":5630:5917   */\n      0x00\n        /* \"#utility.yul\":5851:5869   */\n      swap1\n      dup3\n      add\n        /* \"#utility.yul\":5844:5876   */\n      mstore\n        /* \"#utility.yul\":5908:5910   */\n      0x40\n        /* \"#utility.yul\":5893:5911   */\n      add\n      swap1\n        /* \"#utility.yul\":5804:5917   */\n      jump\t// out\n        /* \"#utility.yul\":5922:6322   */\n    tag_161:\n        /* \"#utility.yul\":6124:6126   */\n      0x20\n        /* \"#utility.yul\":6106:6127   */\n      dup1\n      dup3\n      mstore\n        /* \"#utility.yul\":6163:6165   */\n      0x24\n        /* \"#utility.yul\":6143:6161   */\n      swap1\n      dup3\n      add\n        /* \"#utility.yul\":6136:6166   */\n      mstore\n        /* \"#utility.yul\":6202:6236   */\n      0x45524332303a20617070726f76652066726f6d20746865207a65726f20616464\n        /* \"#utility.yul\":6197:6199   */\n      0x40\n        /* \"#utility.yul\":6182:6200   */\n      dup3\n      add\n        /* \"#utility.yul\":6175:6237   */\n      mstore\n      shl(0xe0, 0x72657373)\n        /* \"#utility.yul\":6268:6270   */\n      0x60\n        /* \"#utility.yul\":6253:6271   */\n      dup3\n      add\n        /* \"#utility.yul\":6246:6280   */\n      mstore\n        /* \"#utility.yul\":6312:6315   */\n      0x80\n        /* \"#utility.yul\":6297:6316   */\n      add\n      swap1\n        /* \"#utility.yul\":6096:6322   */\n      jump\t// out\n        /* \"#utility.yul\":6327:6728   */\n    tag_151:\n        /* \"#utility.yul\":6529:6531   */\n      0x20\n        /* \"#utility.yul\":6511:6532   */\n      dup1\n      dup3\n      mstore\n        /* \"#utility.yul\":6568:6570   */\n      0x25\n        /* \"#utility.yul\":6548:6566   */\n      swap1\n      dup3\n      add\n        /* \"#utility.yul\":6541:6571   */\n      mstore\n        /* \"#utility.yul\":6607:6641   */\n      0x45524332303a2064656372656173656420616c6c6f77616e63652062656c6f77\n        /* \"#utility.yul\":6602:6604   */\n      0x40\n        /* \"#utility.yul\":6587:6605   */\n      dup3\n      add\n        /* \"#utility.yul\":6580:6642   */\n      mstore\n      shl(0xd8, 0x207a65726f)\n        /* \"#utility.yul\":6673:6675   */\n      0x60\n        /* \"#utility.yul\":6658:6676   */\n      dup3\n      add\n        /* \"#utility.yul\":6651:6686   */\n      mstore\n        /* \"#utility.yul\":6718:6721   */\n      0x80\n        /* \"#utility.yul\":6703:6722   */\n      add\n      swap1\n        /* \"#utility.yul\":6501:6728   */\n      jump\t// out\n        /* \"#utility.yul\":6733:7088   */\n    tag_191:\n        /* \"#utility.yul\":6935:6937   */\n      0x20\n        /* \"#utility.yul\":6917:6938   */\n      dup1\n      dup3\n      mstore\n        /* \"#utility.yul\":6974:6976   */\n      0x1f\n        /* \"#utility.yul\":6954:6972   */\n      swap1\n      dup3\n      add\n        /* \"#utility.yul\":6947:6977   */\n      mstore\n        /* \"#utility.yul\":7013:7046   */\n      0x45524332303a206d696e7420746f20746865207a65726f206164647265737300\n        /* \"#utility.yul\":7008:7010   */\n      0x40\n        /* \"#utility.yul\":6993:7011   */\n      dup3\n      add\n        /* \"#utility.yul\":6986:7047   */\n      mstore\n        /* \"#utility.yul\":7079:7081   */\n      0x60\n        /* \"#utility.yul\":7064:7082   */\n      add\n      swap1\n        /* \"#utility.yul\":6907:7088   */\n      jump\t// out\n        /* \"#utility.yul\":7093:7270   */\n    tag_34:\n        /* \"#utility.yul\":7239:7264   */\n      swap1\n      dup2\n      mstore\n        /* \"#utility.yul\":7227:7229   */\n      0x20\n        /* \"#utility.yul\":7212:7230   */\n      add\n      swap1\n        /* \"#utility.yul\":7194:7270   */\n      jump\t// out\n        /* \"#utility.yul\":7275:7459   */\n    tag_43:\n        /* \"#utility.yul\":7447:7451   */\n      0xff\n        /* \"#utility.yul\":7435:7452   */\n      swap2\n      swap1\n      swap2\n      and\n        /* \"#utility.yul\":7417:7453   */\n      dup2\n      mstore\n        /* \"#utility.yul\":7405:7407   */\n      0x20\n        /* \"#utility.yul\":7390:7408   */\n      add\n      swap1\n        /* \"#utility.yul\":7372:7459   */\n      jump\t// out\n        /* \"#utility.yul\":7464:7693   */\n    tag_111:\n      0x00\n        /* \"#utility.yul\":7535:7536   */\n      dup3\n        /* \"#utility.yul\":7531:7537   */\n      not\n        /* \"#utility.yul\":7528:7529   */\n      dup3\n        /* \"#utility.yul\":7525:7538   */\n      gt\n        /* \"#utility.yul\":7522:7524   */\n      iszero\n      tag_250\n      jumpi\n      shl(0xe0, 0x4e487b71)\n        /* \"#utility.yul\":7561:7594   */\n      dup2\n      mstore\n        /* \"#utility.yul\":7617:7621   */\n      0x11\n        /* \"#utility.yul\":7614:7615   */\n      0x04\n        /* \"#utility.yul\":7607:7622   */\n      mstore\n        /* \"#utility.yul\":7647:7651   */\n      0x24\n        /* \"#utility.yul\":7568:7571   */\n      dup2\n        /* \"#utility.yul\":7635:7652   */\n      revert\n        /* \"#utility.yul\":7522:7524   */\n    tag_250:\n      pop\n        /* \"#utility.yul\":7678:7687   */\n      add\n      swap1\n        /* \"#utility.yul\":7512:7693   */\n      jump\t// out\n        /* \"#utility.yul\":7698:8078   */\n    tag_88:\n        /* \"#utility.yul\":7783:7784   */\n      0x02\n        /* \"#utility.yul\":7773:7785   */\n      dup2\n      div\n        /* \"#utility.yul\":7830:7831   */\n      0x01\n        /* \"#utility.yul\":7820:7832   */\n      dup3\n      and\n      dup1\n        /* \"#utility.yul\":7841:7843   */\n      tag_252\n      jumpi\n        /* \"#utility.yul\":7895:7899   */\n      0x7f\n        /* \"#utility.yul\":7887:7893   */\n      dup3\n        /* \"#utility.yul\":7883:7900   */\n      and\n        /* \"#utility.yul\":7873:7900   */\n      swap2\n      pop\n        /* \"#utility.yul\":7841:7843   */\n    tag_252:\n        /* \"#utility.yul\":7948:7950   */\n      0x20\n        /* \"#utility.yul\":7940:7946   */\n      dup3\n        /* \"#utility.yul\":7937:7951   */\n      lt\n        /* \"#utility.yul\":7917:7935   */\n      dup2\n        /* \"#utility.yul\":7914:7952   */\n      eq\n        /* \"#utility.yul\":7911:7913   */\n      iszero\n      tag_253\n      jumpi\n        /* \"#utility.yul\":7994:8004   */\n      0x4e487b71\n        /* \"#utility.yul\":7989:7992   */\n      0xe0\n        /* \"#utility.yul\":7985:8005   */\n      shl\n        /* \"#utility.yul\":7982:7983   */\n      0x00\n        /* \"#utility.yul\":7975:8006   */\n      mstore\n        /* \"#utility.yul\":8029:8033   */\n      0x22\n        /* \"#utility.yul\":8026:8027   */\n      0x04\n        /* \"#utility.yul\":8019:8034   */\n      mstore\n        /* \"#utility.yul\":8057:8061   */\n      0x24\n        /* \"#utility.yul\":8054:8055   */\n      0x00\n        /* \"#utility.yul\":8047:8062   */\n      revert\n        /* \"#utility.yul\":7911:7913   */\n    tag_253:\n      pop\n        /* \"#utility.yul\":7753:8078   */\n      swap2\n      swap1\n      pop\n      jump\t// out\n\n    auxdata: 0xa2646970667358221220fd8220d0879858cb19477e194b426a78ff4c5bbd30d7496de40a6a485bf114c864736f6c63430008000033\n}\n",
				"bytecode": {
					"linkReferences": {},
					"object": "60806040523480156200001157600080fd5b5060405162001039380380620010398339810160408190526200003491620001ef565b8151829082906200004d9060039060208501906200009e565b508051620000639060049060208401906200009e565b50620000719150506200009a565b600580546001600160a01b0319166001600160a01b039290921691909117905550620002a99050565b3390565b828054620000ac9062000256565b90600052602060002090601f016020900481019282620000d057600085556200011b565b82601f10620000eb57805160ff19168380011785556200011b565b828001600101855582156200011b579182015b828111156200011b578251825591602001919060010190620000fe565b50620001299291506200012d565b5090565b5b808211156200012957600081556001016200012e565b600082601f83011262000155578081fd5b81516001600160401b038082111562000172576200017262000293565b6040516020601f8401601f19168201810183811183821017156200019a576200019a62000293565b6040528382528584018101871015620001b1578485fd5b8492505b83831015620001d45785830181015182840182015291820191620001b5565b83831115620001e557848185840101525b5095945050505050565b6000806040838503121562000202578182fd5b82516001600160401b038082111562000219578384fd5b620002278683870162000144565b935060208501519150808211156200023d578283fd5b506200024c8582860162000144565b9150509250929050565b6002810460018216806200026b57607f821691505b602082108114156200028d57634e487b7160e01b600052602260045260246000fd5b50919050565b634e487b7160e01b600052604160045260246000fd5b610d8080620002b96000396000f3fe608060405234801561001057600080fd5b50600436106100f55760003560e01c806342966c681161009757806395d89b411161006657806395d89b41146101e9578063a457c2d7146101f1578063a9059cbb14610204578063dd62ed3e14610217576100f5565b806342966c681461019b57806370a08231146101ae57806379cc6790146101c15780638da5cb5b146101d4576100f5565b806323b872dd116100d357806323b872dd1461014d578063313ce56714610160578063395093511461017557806340c10f1914610188576100f5565b806306fdde03146100fa578063095ea7b31461011857806318160ddd14610138575b600080fd5b61010261022a565b60405161010f91906109b7565b60405180910390f35b61012b610126366004610957565b6102bc565b60405161010f91906109ac565b6101406102de565b60405161010f9190610cd4565b61012b61015b36600461091c565b6102e4565b610168610312565b60405161010f9190610cdd565b61012b610183366004610957565b610317565b61012b610196366004610957565b610343565b61012b6101a9366004610980565b61039c565b6101406101bc3660046108c9565b6103f3565b61012b6101cf366004610957565b61040e565b6101dc610480565b60405161010f9190610998565b61010261048f565b61012b6101ff366004610957565b61049e565b61012b610212366004610957565b6104e6565b6101406102253660046108ea565b6104fe565b60606003805461023990610d0f565b80601f016020809104026020016040519081016040528092919081815260200182805461026590610d0f565b80156102b25780601f10610287576101008083540402835291602001916102b2565b820191906000526020600020905b81548152906001019060200180831161029557829003601f168201915b5050505050905090565b6000806102c7610529565b90506102d481858561052d565b5060019392505050565b60025490565b6000806102ef610529565b90506102fc8582856105e1565b61030785858561062b565b506001949350505050565b601290565b600080610322610529565b90506102d481858561033485896104fe565b61033e9190610ceb565b61052d565b6005546000906001600160a01b031661035a610529565b6001600160a01b0316146103895760405162461bcd60e51b815260040161038090610c03565b60405180910390fd5b610393838361072c565b50600192915050565b6005546000906001600160a01b03166103b3610529565b6001600160a01b0316146103d95760405162461bcd60e51b815260040161038090610c03565b6103ea6103e4610529565b836107da565b5060015b919050565b6001600160a01b031660009081526020819052604090205490565b6005546000906001600160a01b0316610425610529565b6001600160a01b03161461044b5760405162461bcd60e51b815260040161038090610c03565b8161045884610225610529565b10156104765760405162461bcd60e51b815260040161038090610ad1565b61039383836107da565b6005546001600160a01b031681565b60606004805461023990610d0f565b6000806104a9610529565b905060006104b782866104fe565b9050838110156104d95760405162461bcd60e51b815260040161038090610c58565b610307828686840361052d565b6000806104f1610529565b90506102d481858561062b565b6001600160a01b03918216600090815260016020908152604080832093909416825291909152205490565b3390565b6001600160a01b0383166105535760405162461bcd60e51b815260040161038090610c14565b6001600160a01b0382166105795760405162461bcd60e51b815260040161038090610a8f565b6001600160a01b0380841660008181526001602090815260408083209487168084529490915290819020849055517f8c5be1e5ebec7d5bd14f71427d1e84f3dd0314c0f7b2291e5b200ac8c7c3b925906105d4908590610cd4565b60405180910390a3505050565b60006105ed84846104fe565b9050600019811461062557818110156106185760405162461bcd60e51b815260040161038090610b00565b610625848484840361052d565b50505050565b6001600160a01b0383166106515760405162461bcd60e51b815260040161038090610bbe565b6001600160a01b0382166106775760405162461bcd60e51b815260040161038090610a0a565b6106828383836108ad565b6001600160a01b038316600090815260208190526040902054818110156106bb5760405162461bcd60e51b815260040161038090610b37565b6001600160a01b0380851660008181526020819052604080822086860390559286168082529083902080548601905591517fddf252ad1be2c89b69c2b068fc378daa952ba7f163c4a11628f55a4df523b3ef90610719908690610cd4565b60405180910390a36106258484846108ad565b6001600160a01b0382166107525760405162461bcd60e51b815260040161038090610c9d565b61075e600083836108ad565b80600260008282546107709190610ceb565b90915550506001600160a01b038216600081815260208190526040808220805485019055517fddf252ad1be2c89b69c2b068fc378daa952ba7f163c4a11628f55a4df523b3ef906107c2908590610cd4565b60405180910390a36107d6600083836108ad565b5050565b6001600160a01b0382166108005760405162461bcd60e51b815260040161038090610b7d565b61080c826000836108ad565b6001600160a01b038216600090815260208190526040902054818110156108455760405162461bcd60e51b815260040161038090610a4d565b6001600160a01b0383166000818152602081905260408082208585039055600280548690039055519091907fddf252ad1be2c89b69c2b068fc378daa952ba7f163c4a11628f55a4df523b3ef9061089d908690610cd4565b60405180910390a36108ad836000845b505050565b80356001600160a01b03811681146103ee57600080fd5b6000602082840312156108da578081fd5b6108e3826108b2565b9392505050565b600080604083850312156108fc578081fd5b610905836108b2565b9150610913602084016108b2565b90509250929050565b600080600060608486031215610930578081fd5b610939846108b2565b9250610947602085016108b2565b9150604084013590509250925092565b60008060408385031215610969578182fd5b610972836108b2565b946020939093013593505050565b600060208284031215610991578081fd5b5035919050565b6001600160a01b0391909116815260200190565b901515815260200190565b6000602080835283518082850152825b818110156109e3578581018301518582016040015282016109c7565b818111156109f45783604083870101525b50601f01601f1916929092016040019392505050565b60208082526023908201527f45524332303a207472616e7366657220746f20746865207a65726f206164647260408201526265737360e81b606082015260800190565b60208082526022908201527f45524332303a206275726e20616d6f756e7420657863656564732062616c616e604082015261636560f01b606082015260800190565b60208082526022908201527f45524332303a20617070726f766520746f20746865207a65726f206164647265604082015261737360f01b606082015260800190565b602080825260159082015274494e535546494349454e545f414c4c4f57414e434560581b604082015260600190565b6020808252601d908201527f45524332303a20696e73756666696369656e7420616c6c6f77616e6365000000604082015260600190565b60208082526026908201527f45524332303a207472616e7366657220616d6f756e7420657863656564732062604082015265616c616e636560d01b606082015260800190565b60208082526021908201527f45524332303a206275726e2066726f6d20746865207a65726f206164647265736040820152607360f81b606082015260800190565b60208082526025908201527f45524332303a207472616e736665722066726f6d20746865207a65726f206164604082015264647265737360d81b606082015260800190565b602080825260009082015260400190565b60208082526024908201527f45524332303a20617070726f76652066726f6d20746865207a65726f206164646040820152637265737360e01b606082015260800190565b60208082526025908201527f45524332303a2064656372656173656420616c6c6f77616e63652062656c6f77604082015264207a65726f60d81b606082015260800190565b6020808252601f908201527f45524332303a206d696e7420746f20746865207a65726f206164647265737300604082015260600190565b90815260200190565b60ff91909116815260200190565b60008219821115610d0a57634e487b7160e01b81526011600452602481fd5b500190565b600281046001821680610d2357607f821691505b60208210811415610d4457634e487b7160e01b600052602260045260246000fd5b5091905056fea2646970667358221220fd8220d0879858cb19477e194b426a78ff4c5bbd30d7496de40a6a485bf114c864736f6c63430008000033",
					"opcodes": "PUSH1 0x80 PUSH1 0x40 MSTORE CALLVALUE DUP1 ISZERO PUSH3 0x11 JUMPI PUSH1 0x0 DUP1 REVERT JUMPDEST POP PUSH1 0x40 MLOAD PUSH3 0x1039 CODESIZE SUB DUP1 PUSH3 0x1039 DUP4 CODECOPY DUP2 ADD PUSH1 0x40 DUP2 SWAP1 MSTORE PUSH3 0x34 SWAP2 PUSH3 0x1EF JUMP JUMPDEST DUP2 MLOAD DUP3 SWAP1 DUP3 SWAP1 PUSH3 0x4D SWAP1 PUSH1 0x3 SWAP1 PUSH1 0x20 DUP6 ADD SWAP1 PUSH3 0x9E JUMP JUMPDEST POP DUP1 MLOAD PUSH3 0x63 SWAP1 PUSH1 0x4 SWAP1 PUSH1 0x20 DUP5 ADD SWAP1 PUSH3 0x9E JUMP JUMPDEST POP PUSH3 0x71 SWAP2 POP POP PUSH3 0x9A JUMP JUMPDEST PUSH1 0x5 DUP1 SLOAD PUSH1 0x1 PUSH1 0x1 PUSH1 0xA0 SHL SUB NOT AND PUSH1 0x1 PUSH1 0x1 PUSH1 0xA0 SHL SUB SWAP3 SWAP1 SWAP3 AND SWAP2 SWAP1 SWAP2 OR SWAP1 SSTORE POP PUSH3 0x2A9 SWAP1 POP JUMP JUMPDEST CALLER SWAP1 JUMP JUMPDEST DUP3 DUP1 SLOAD PUSH3 0xAC SWAP1 PUSH3 0x256 JUMP JUMPDEST SWAP1 PUSH1 0x0 MSTORE PUSH1 0x20 PUSH1 0x0 KECCAK256 SWAP1 PUSH1 0x1F ADD PUSH1 0x20 SWAP1 DIV DUP2 ADD SWAP3 DUP3 PUSH3 0xD0 JUMPI PUSH1 0x0 DUP6 SSTORE PUSH3 0x11B JUMP JUMPDEST DUP3 PUSH1 0x1F LT PUSH3 0xEB JUMPI DUP1 MLOAD PUSH1 0xFF NOT AND DUP4 DUP1 ADD OR DUP6 SSTORE PUSH3 0x11B JUMP JUMPDEST DUP3 DUP1 ADD PUSH1 0x1 ADD DUP6 SSTORE DUP3 ISZERO PUSH3 0x11B JUMPI SWAP2 DUP3 ADD JUMPDEST DUP3 DUP2 GT ISZERO PUSH3 0x11B JUMPI DUP3 MLOAD DUP3 SSTORE SWAP2 PUSH1 0x20 ADD SWAP2 SWAP1 PUSH1 0x1 ADD SWAP1 PUSH3 0xFE JUMP JUMPDEST POP PUSH3 0x129 SWAP3 SWAP2 POP PUSH3 0x12D JUMP JUMPDEST POP SWAP1 JUMP JUMPDEST JUMPDEST DUP1 DUP3 GT ISZERO PUSH3 0x129 JUMPI PUSH1 0x0 DUP2 SSTORE PUSH1 0x1 ADD PUSH3 0x12E JUMP JUMPDEST PUSH1 0x0 DUP3 PUSH1 0x1F DUP4 ADD SLT PUSH3 0x155 JUMPI DUP1 DUP2 REVERT JUMPDEST DUP2 MLOAD PUSH1 0x1 PUSH1 0x1 PUSH1 0x40 SHL SUB DUP1 DUP3 GT ISZERO PUSH3 0x172 JUMPI PUSH3 0x172 PUSH3 0x293 JUMP JUMPDEST PUSH1 0x40 MLOAD PUSH1 0x20 PUSH1 0x1F DUP5 ADD PUSH1 0x1F NOT AND DUP3 ADD DUP2 ADD DUP4 DUP2 GT DUP4 DUP3 LT OR ISZERO PUSH3 0x19A JUMPI PUSH3 0x19A PUSH3 0x293 JUMP JUMPDEST PUSH1 0x40 MSTORE DUP4 DUP3 MSTORE DUP6 DUP5 ADD DUP2 ADD DUP8 LT ISZERO PUSH3 0x1B1 JUMPI DUP5 DUP6 REVERT JUMPDEST DUP5 SWAP3 POP JUMPDEST DUP4 DUP4 LT ISZERO PUSH3 0x1D4 JUMPI DUP6 DUP4 ADD DUP2 ADD MLOAD DUP3 DUP5 ADD DUP3 ADD MSTORE SWAP2 DUP3 ADD SWAP2 PUSH3 0x1B5 JUMP JUMPDEST DUP4 DUP4 GT ISZERO PUSH3 0x1E5 JUMPI DUP5 DUP2 DUP6 DUP5 ADD ADD MSTORE JUMPDEST POP SWAP6 SWAP5 POP POP POP POP POP JUMP JUMPDEST PUSH1 0x0 DUP1 PUSH1 0x40 DUP4 DUP6 SUB SLT ISZERO PUSH3 0x202 JUMPI DUP2 DUP3 REVERT JUMPDEST DUP3 MLOAD PUSH1 0x1 PUSH1 0x1 PUSH1 0x40 SHL SUB DUP1 DUP3 GT ISZERO PUSH3 0x219 JUMPI DUP4 DUP5 REVERT JUMPDEST PUSH3 0x227 DUP7 DUP4 DUP8 ADD PUSH3 0x144 JUMP JUMPDEST SWAP4 POP PUSH1 0x20 DUP6 ADD MLOAD SWAP2 POP DUP1 DUP3 GT ISZERO PUSH3 0x23D JUMPI DUP3 DUP4 REVERT JUMPDEST POP PUSH3 0x24C DUP6 DUP3 DUP7 ADD PUSH3 0x144 JUMP JUMPDEST SWAP2 POP POP SWAP3 POP SWAP3 SWAP1 POP JUMP JUMPDEST PUSH1 0x2 DUP2 DIV PUSH1 0x1 DUP3 AND DUP1 PUSH3 0x26B JUMPI PUSH1 0x7F DUP3 AND SWAP2 POP JUMPDEST PUSH1 0x20 DUP3 LT DUP2 EQ ISZERO PUSH3 0x28D JUMPI PUSH4 0x4E487B71 PUSH1 0xE0 SHL PUSH1 0x0 MSTORE PUSH1 0x22 PUSH1 0x4 MSTORE PUSH1 0x24 PUSH1 0x0 REVERT JUMPDEST POP SWAP2 SWAP1 POP JUMP JUMPDEST PUSH4 0x4E487B71 PUSH1 0xE0 SHL PUSH1 0x0 MSTORE PUSH1 0x41 PUSH1 0x4 MSTORE PUSH1 0x24 PUSH1 0x0 REVERT JUMPDEST PUSH2 0xD80 DUP1 PUSH3 0x2B9 PUSH1 0x0 CODECOPY PUSH1 0x0 RETURN INVALID PUSH1 0x80 PUSH1 0x40 MSTORE CALLVALUE DUP1 ISZERO PUSH2 0x10 JUMPI PUSH1 0x0 DUP1 REVERT JUMPDEST POP PUSH1 0x4 CALLDATASIZE LT PUSH2 0xF5 JUMPI PUSH1 0x0 CALLDATALOAD PUSH1 0xE0 SHR DUP1 PUSH4 0x42966C68 GT PUSH2 0x97 JUMPI DUP1 PUSH4 0x95D89B41 GT PUSH2 0x66 JUMPI DUP1 PUSH4 0x95D89B41 EQ PUSH2 0x1E9 JUMPI DUP1 PUSH4 0xA457C2D7 EQ PUSH2 0x1F1 JUMPI DUP1 PUSH4 0xA9059CBB EQ PUSH2 0x204 JUMPI DUP1 PUSH4 0xDD62ED3E EQ PUSH2 0x217 JUMPI PUSH2 0xF5 JUMP JUMPDEST DUP1 PUSH4 0x42966C68 EQ PUSH2 0x19B JUMPI DUP1 PUSH4 0x70A08231 EQ PUSH2 0x1AE JUMPI DUP1 PUSH4 0x79CC6790 EQ PUSH2 0x1C1 JUMPI DUP1 PUSH4 0x8DA5CB5B EQ PUSH2 0x1D4 JUMPI PUSH2 0xF5 JUMP JUMPDEST DUP1 PUSH4 0x23B872DD GT PUSH2 0xD3 JUMPI DUP1 PUSH4 0x23B872DD EQ PUSH2 0x14D JUMPI DUP1 PUSH4 0x313CE567 EQ PUSH2 0x160 JUMPI DUP1 PUSH4 0x39509351 EQ PUSH2 0x175 JUMPI DUP1 PUSH4 0x40C10F19 EQ PUSH2 0x188 JUMPI PUSH2 0xF5 JUMP JUMPDEST DUP1 PUSH4 0x6FDDE03 EQ PUSH2 0xFA JUMPI DUP1 PUSH4 0x95EA7B3 EQ PUSH2 0x118 JUMPI DUP1 PUSH4 0x18160DDD EQ PUSH2 0x138 JUMPI JUMPDEST PUSH1 0x0 DUP1 REVERT JUMPDEST PUSH2 0x102 PUSH2 0x22A JUMP JUMPDEST PUSH1 0x40 MLOAD PUSH2 0x10F SWAP2 SWAP1 PUSH2 0x9B7 JUMP JUMPDEST PUSH1 0x40 MLOAD DUP1 SWAP2 SUB SWAP1 RETURN JUMPDEST PUSH2 0x12B PUSH2 0x126 CALLDATASIZE PUSH1 0x4 PUSH2 0x957 JUMP JUMPDEST PUSH2 0x2BC JUMP JUMPDEST PUSH1 0x40 MLOAD PUSH2 0x10F SWAP2 SWAP1 PUSH2 0x9AC JUMP JUMPDEST PUSH2 0x140 PUSH2 0x2DE JUMP JUMPDEST PUSH1 0x40 MLOAD PUSH2 0x10F SWAP2 SWAP1 PUSH2 0xCD4 JUMP JUMPDEST PUSH2 0x12B PUSH2 0x15B CALLDATASIZE PUSH1 0x4 PUSH2 0x91C JUMP JUMPDEST PUSH2 0x2E4 JUMP JUMPDEST PUSH2 0x168 PUSH2 0x312 JUMP JUMPDEST PUSH1 0x40 MLOAD PUSH2 0x10F SWAP2 SWAP1 PUSH2 0xCDD JUMP JUMPDEST PUSH2 0x12B PUSH2 0x183 CALLDATASIZE PUSH1 0x4 PUSH2 0x957 JUMP JUMPDEST PUSH2 0x317 JUMP JUMPDEST PUSH2 0x12B PUSH2 0x196 CALLDATASIZE PUSH1 0x4 PUSH2 0x957 JUMP JUMPDEST PUSH2 0x343 JUMP JUMPDEST PUSH2 0x12B PUSH2 0x1A9 CALLDATASIZE PUSH1 0x4 PUSH2 0x980 JUMP JUMPDEST PUSH2 0x39C JUMP JUMPDEST PUSH2 0x140 PUSH2 0x1BC CALLDATASIZE PUSH1 0x4 PUSH2 0x8C9 JUMP JUMPDEST PUSH2 0x3F3 JUMP JUMPDEST PUSH2 0x12B PUSH2 0x1CF CALLDATASIZE PUSH1 0x4 PUSH2 0x957 JUMP JUMPDEST PUSH2 0x40E JUMP JUMPDEST PUSH2 0x1DC PUSH2 0x480 JUMP JUMPDEST PUSH1 0x40 MLOAD PUSH2 0x10F SWAP2 SWAP1 PUSH2 0x998 JUMP JUMPDEST PUSH2 0x102 PUSH2 0x48F JUMP JUMPDEST PUSH2 0x12B PUSH2 0x1FF CALLDATASIZE PUSH1 0x4 PUSH2 0x957 JUMP JUMPDEST PUSH2 0x49E JUMP JUMPDEST PUSH2 0x12B PUSH2 0x212 CALLDATASIZE PUSH1 0x4 PUSH2 0x957 JUMP JUMPDEST PUSH2 0x4E6 JUMP JUMPDEST PUSH2 0x140 PUSH2 0x225 CALLDATASIZE PUSH1 0x4 PUSH2 0x8EA JUMP JUMPDEST PUSH2 0x4FE JUMP JUMPDEST PUSH1 0x60 PUSH1 0x3 DUP1 SLOAD PUSH2 0x239 SWAP1 PUSH2 0xD0F JUMP JUMPDEST DUP1 PUSH1 0x1F ADD PUSH1 0x20 DUP1 SWAP2 DIV MUL PUSH1 0x20 ADD PUSH1 0x40 MLOAD SWAP1 DUP2 ADD PUSH1 0x40 MSTORE DUP1 SWAP3 SWAP2 SWAP1 DUP2 DUP2 MSTORE PUSH1 0x20 ADD DUP3 DUP1 SLOAD PUSH2 0x265 SWAP1 PUSH2 0xD0F JUMP JUMPDEST DUP1 ISZERO PUSH2 0x2B2 JUMPI DUP1 PUSH1 0x1F LT PUSH2 0x287 JUMPI PUSH2 0x100 DUP1 DUP4 SLOAD DIV MUL DUP4 MSTORE SWAP2 PUSH1 0x20 ADD SWAP2 PUSH2 0x2B2 JUMP JUMPDEST DUP3 ADD SWAP2 SWAP1 PUSH1 0x0 MSTORE PUSH1 0x20 PUSH1 0x0 KECCAK256 SWAP1 JUMPDEST DUP2 SLOAD DUP2 MSTORE SWAP1 PUSH1 0x1 ADD SWAP1 PUSH1 0x20 ADD DUP1 DUP4 GT PUSH2 0x295 JUMPI DUP3 SWAP1 SUB PUSH1 0x1F AND DUP3 ADD SWAP2 JUMPDEST POP POP POP POP POP SWAP1 POP SWAP1 JUMP JUMPDEST PUSH1 0x0 DUP1 PUSH2 0x2C7 PUSH2 0x529 JUMP JUMPDEST SWAP1 POP PUSH2 0x2D4 DUP2 DUP6 DUP6 PUSH2 0x52D JUMP JUMPDEST POP PUSH1 0x1 SWAP4 SWAP3 POP POP POP JUMP JUMPDEST PUSH1 0x2 SLOAD SWAP1 JUMP JUMPDEST PUSH1 0x0 DUP1 PUSH2 0x2EF PUSH2 0x529 JUMP JUMPDEST SWAP1 POP PUSH2 0x2FC DUP6 DUP3 DUP6 PUSH2 0x5E1 JUMP JUMPDEST PUSH2 0x307 DUP6 DUP6 DUP6 PUSH2 0x62B JUMP JUMPDEST POP PUSH1 0x1 SWAP5 SWAP4 POP POP POP POP JUMP JUMPDEST PUSH1 0x12 SWAP1 JUMP JUMPDEST PUSH1 0x0 DUP1 PUSH2 0x322 PUSH2 0x529 JUMP JUMPDEST SWAP1 POP PUSH2 0x2D4 DUP2 DUP6 DUP6 PUSH2 0x334 DUP6 DUP10 PUSH2 0x4FE JUMP JUMPDEST PUSH2 0x33E SWAP2 SWAP1 PUSH2 0xCEB JUMP JUMPDEST PUSH2 0x52D JUMP JUMPDEST PUSH1 0x5 SLOAD PUSH1 0x0 SWAP1 PUSH1 0x1 PUSH1 0x1 PUSH1 0xA0 SHL SUB AND PUSH2 0x35A PUSH2 0x529 JUMP JUMPDEST PUSH1 0x1 PUSH1 0x1 PUSH1 0xA0 SHL SUB AND EQ PUSH2 0x389 JUMPI PUSH1 0x40 MLOAD PUSH3 0x461BCD PUSH1 0xE5 SHL DUP2 MSTORE PUSH1 0x4 ADD PUSH2 0x380 SWAP1 PUSH2 0xC03 JUMP JUMPDEST PUSH1 0x40 MLOAD DUP1 SWAP2 SUB SWAP1 REVERT JUMPDEST PUSH2 0x393 DUP4 DUP4 PUSH2 0x72C JUMP JUMPDEST POP PUSH1 0x1 SWAP3 SWAP2 POP POP JUMP JUMPDEST PUSH1 0x5 SLOAD PUSH1 0x0 SWAP1 PUSH1 0x1 PUSH1 0x1 PUSH1 0xA0 SHL SUB AND PUSH2 0x3B3 PUSH2 0x529 JUMP JUMPDEST PUSH1 0x1 PUSH1 0x1 PUSH1 0xA0 SHL SUB AND EQ PUSH2 0x3D9 JUMPI PUSH1 0x40 MLOAD PUSH3 0x461BCD PUSH1 0xE5 SHL DUP2 MSTORE PUSH1 0x4 ADD PUSH2 0x380 SWAP1 PUSH2 0xC03 JUMP JUMPDEST PUSH2 0x3EA PUSH2 0x3E4 PUSH2 0x529 JUMP JUMPDEST DUP4 PUSH2 0x7DA JUMP JUMPDEST POP PUSH1 0x1 JUMPDEST SWAP2 SWAP1 POP JUMP JUMPDEST PUSH1 0x1 PUSH1 0x1 PUSH1 0xA0 SHL SUB AND PUSH1 0x0 SWAP1 DUP2 MSTORE PUSH1 0x20 DUP2 SWAP1 MSTORE PUSH1 0x40 SWAP1 KECCAK256 SLOAD SWAP1 JUMP JUMPDEST PUSH1 0x5 SLOAD PUSH1 0x0 SWAP1 PUSH1 0x1 PUSH1 0x1 PUSH1 0xA0 SHL SUB AND PUSH2 0x425 PUSH2 0x529 JUMP JUMPDEST PUSH1 0x1 PUSH1 0x1 PUSH1 0xA0 SHL SUB AND EQ PUSH2 0x44B JUMPI PUSH1 0x40 MLOAD PUSH3 0x461BCD PUSH1 0xE5 SHL DUP2 MSTORE PUSH1 0x4 ADD PUSH2 0x380 SWAP1 PUSH2 0xC03 JUMP JUMPDEST DUP2 PUSH2 0x458 DUP5 PUSH2 0x225 PUSH2 0x529 JUMP JUMPDEST LT ISZERO PUSH2 0x476 JUMPI PUSH1 0x40 MLOAD PUSH3 0x461BCD PUSH1 0xE5 SHL DUP2 MSTORE PUSH1 0x4 ADD PUSH2 0x380 SWAP1 PUSH2 0xAD1 JUMP JUMPDEST PUSH2 0x393 DUP4 DUP4 PUSH2 0x7DA JUMP JUMPDEST PUSH1 0x5 SLOAD PUSH1 0x1 PUSH1 0x1 PUSH1 0xA0 SHL SUB AND DUP2 JUMP JUMPDEST PUSH1 0x60 PUSH1 0x4 DUP1 SLOAD PUSH2 0x239 SWAP1 PUSH2 0xD0F JUMP JUMPDEST PUSH1 0x0 DUP1 PUSH2 0x4A9 PUSH2 0x529 JUMP JUMPDEST SWAP1 POP PUSH1 0x0 PUSH2 0x4B7 DUP3 DUP7 PUSH2 0x4FE JUMP JUMPDEST SWAP1 POP DUP4 DUP2 LT ISZERO PUSH2 0x4D9 JUMPI PUSH1 0x40 MLOAD PUSH3 0x461BCD PUSH1 0xE5 SHL DUP2 MSTORE PUSH1 0x4 ADD PUSH2 0x380 SWAP1 PUSH2 0xC58 JUMP JUMPDEST PUSH2 0x307 DUP3 DUP7 DUP7 DUP5 SUB PUSH2 0x52D JUMP JUMPDEST PUSH1 0x0 DUP1 PUSH2 0x4F1 PUSH2 0x529 JUMP JUMPDEST SWAP1 POP PUSH2 0x2D4 DUP2 DUP6 DUP6 PUSH2 0x62B JUMP JUMPDEST PUSH1 0x1 PUSH1 0x1 PUSH1 0xA0 SHL SUB SWAP2 DUP3 AND PUSH1 0x0 SWAP1 DUP2 MSTORE PUSH1 0x1 PUSH1 0x20 SWAP1 DUP2 MSTORE PUSH1 0x40 DUP1 DUP4 KECCAK256 SWAP4 SWAP1 SWAP5 AND DUP3 MSTORE SWAP2 SWAP1 SWAP2 MSTORE KECCAK256 SLOAD SWAP1 JUMP JUMPDEST CALLER SWAP1 JUMP JUMPDEST PUSH1 0x1 PUSH1 0x1 PUSH1 0xA0 SHL SUB DUP4 AND PUSH2 0x553 JUMPI PUSH1 0x40 MLOAD PUSH3 0x461BCD PUSH1 0xE5 SHL DUP2 MSTORE PUSH1 0x4 ADD PUSH2 0x380 SWAP1 PUSH2 0xC14 JUMP JUMPDEST PUSH1 0x1 PUSH1 0x1 PUSH1 0xA0 SHL SUB DUP3 AND PUSH2 0x579 JUMPI PUSH1 0x40 MLOAD PUSH3 0x461BCD PUSH1 0xE5 SHL DUP2 MSTORE PUSH1 0x4 ADD PUSH2 0x380 SWAP1 PUSH2 0xA8F JUMP JUMPDEST PUSH1 0x1 PUSH1 0x1 PUSH1 0xA0 SHL SUB DUP1 DUP5 AND PUSH1 0x0 DUP2 DUP2 MSTORE PUSH1 0x1 PUSH1 0x20 SWAP1 DUP2 MSTORE PUSH1 0x40 DUP1 DUP4 KECCAK256 SWAP5 DUP8 AND DUP1 DUP5 MSTORE SWAP5 SWAP1 SWAP2 MSTORE SWAP1 DUP2 SWAP1 KECCAK256 DUP5 SWAP1 SSTORE MLOAD PUSH32 0x8C5BE1E5EBEC7D5BD14F71427D1E84F3DD0314C0F7B2291E5B200AC8C7C3B925 SWAP1 PUSH2 0x5D4 SWAP1 DUP6 SWAP1 PUSH2 0xCD4 JUMP JUMPDEST PUSH1 0x40 MLOAD DUP1 SWAP2 SUB SWAP1 LOG3 POP POP POP JUMP JUMPDEST PUSH1 0x0 PUSH2 0x5ED DUP5 DUP5 PUSH2 0x4FE JUMP JUMPDEST SWAP1 POP PUSH1 0x0 NOT DUP2 EQ PUSH2 0x625 JUMPI DUP2 DUP2 LT ISZERO PUSH2 0x618 JUMPI PUSH1 0x40 MLOAD PUSH3 0x461BCD PUSH1 0xE5 SHL DUP2 MSTORE PUSH1 0x4 ADD PUSH2 0x380 SWAP1 PUSH2 0xB00 JUMP JUMPDEST PUSH2 0x625 DUP5 DUP5 DUP5 DUP5 SUB PUSH2 0x52D JUMP JUMPDEST POP POP POP POP JUMP JUMPDEST PUSH1 0x1 PUSH1 0x1 PUSH1 0xA0 SHL SUB DUP4 AND PUSH2 0x651 JUMPI PUSH1 0x40 MLOAD PUSH3 0x461BCD PUSH1 0xE5 SHL DUP2 MSTORE PUSH1 0x4 ADD PUSH2 0x380 SWAP1 PUSH2 0xBBE JUMP JUMPDEST PUSH1 0x1 PUSH1 0x1 PUSH1 0xA0 SHL SUB DUP3 AND PUSH2 0x677 JUMPI PUSH1 0x40 MLOAD PUSH3 0x461BCD PUSH1 0xE5 SHL DUP2 MSTORE PUSH1 0x4 ADD PUSH2 0x380 SWAP1 PUSH2 0xA0A JUMP JUMPDEST PUSH2 0x682 DUP4 DUP4 DUP4 PUSH2 0x8AD JUMP JUMPDEST PUSH1 0x1 PUSH1 0x1 PUSH1 0xA0 SHL SUB DUP4 AND PUSH1 0x0 SWAP1 DUP2 MSTORE PUSH1 0x20 DUP2 SWAP1 MSTORE PUSH1 0x40 SWAP1 KECCAK256 SLOAD DUP2 DUP2 LT ISZERO PUSH2 0x6BB JUMPI PUSH1 0x40 MLOAD PUSH3 0x461BCD PUSH1 0xE5 SHL DUP2 MSTORE PUSH1 0x4 ADD PUSH2 0x380 SWAP1 PUSH2 0xB37 JUMP JUMPDEST PUSH1 0x1 PUSH1 0x1 PUSH1 0xA0 SHL SUB DUP1 DUP6 AND PUSH1 0x0 DUP2 DUP2 MSTORE PUSH1 0x20 DUP2 SWAP1 MSTORE PUSH1 0x40 DUP1 DUP3 KECCAK256 DUP7 DUP7 SUB SWAP1 SSTORE SWAP3 DUP7 AND DUP1 DUP3 MSTORE SWAP1 DUP4 SWAP1 KECCAK256 DUP1 SLOAD DUP7 ADD SWAP1 SSTORE SWAP2 MLOAD PUSH32 0xDDF252AD1BE2C89B69C2B068FC378DAA952BA7F163C4A11628F55A4DF523B3EF SWAP1 PUSH2 0x719 SWAP1 DUP7 SWAP1 PUSH2 0xCD4 JUMP JUMPDEST PUSH1 0x40 MLOAD DUP1 SWAP2 SUB SWAP1 LOG3 PUSH2 0x625 DUP5 DUP5 DUP5 PUSH2 0x8AD JUMP JUMPDEST PUSH1 0x1 PUSH1 0x1 PUSH1 0xA0 SHL SUB DUP3 AND PUSH2 0x752 JUMPI PUSH1 0x40 MLOAD PUSH3 0x461BCD PUSH1 0xE5 SHL DUP2 MSTORE PUSH1 0x4 ADD PUSH2 0x380 SWAP1 PUSH2 0xC9D JUMP JUMPDEST PUSH2 0x75E PUSH1 0x0 DUP4 DUP4 PUSH2 0x8AD JUMP JUMPDEST DUP1 PUSH1 0x2 PUSH1 0x0 DUP3 DUP3 SLOAD PUSH2 0x770 SWAP2 SWAP1 PUSH2 0xCEB JUMP JUMPDEST SWAP1 SWAP2 SSTORE POP POP PUSH1 0x1 PUSH1 0x1 PUSH1 0xA0 SHL SUB DUP3 AND PUSH1 0x0 DUP2 DUP2 MSTORE PUSH1 0x20 DUP2 SWAP1 MSTORE PUSH1 0x40 DUP1 DUP3 KECCAK256 DUP1 SLOAD DUP6 ADD SWAP1 SSTORE MLOAD PUSH32 0xDDF252AD1BE2C89B69C2B068FC378DAA952BA7F163C4A11628F55A4DF523B3EF SWAP1 PUSH2 0x7C2 SWAP1 DUP6 SWAP1 PUSH2 0xCD4 JUMP JUMPDEST PUSH1 0x40 MLOAD DUP1 SWAP2 SUB SWAP1 LOG3 PUSH2 0x7D6 PUSH1 0x0 DUP4 DUP4 PUSH2 0x8AD JUMP JUMPDEST POP POP JUMP JUMPDEST PUSH1 0x1 PUSH1 0x1 PUSH1 0xA0 SHL SUB DUP3 AND PUSH2 0x800 JUMPI PUSH1 0x40 MLOAD PUSH3 0x461BCD PUSH1 0xE5 SHL DUP2 MSTORE PUSH1 0x4 ADD PUSH2 0x380 SWAP1 PUSH2 0xB7D JUMP JUMPDEST PUSH2 0x80C DUP3 PUSH1 0x0 DUP4 PUSH2 0x8AD JUMP JUMPDEST PUSH1 0x1 PUSH1 0x1 PUSH1 0xA0 SHL SUB DUP3 AND PUSH1 0x0 SWAP1 DUP2 MSTORE PUSH1 0x20 DUP2 SWAP1 MSTORE PUSH1 0x40 SWAP1 KECCAK256 SLOAD DUP2 DUP2 LT ISZERO PUSH2 0x845 JUMPI PUSH1 0x40 MLOAD PUSH3 0x461BCD PUSH1 0xE5 SHL DUP2 MSTORE PUSH1 0x4 ADD PUSH2 0x380 SWAP1 PUSH2 0xA4D JUMP JUMPDEST PUSH1 0x1 PUSH1 0x1 PUSH1 0xA0 SHL SUB DUP4 AND PUSH1 0x0 DUP2 DUP2 MSTORE PUSH1 0x20 DUP2 SWAP1 MSTORE PUSH1 0x40 DUP1 DUP3 KECCAK256 DUP6 DUP6 SUB SWAP1 SSTORE PUSH1 0x2 DUP1 SLOAD DUP7 SWAP1 SUB SWAP1 SSTORE MLOAD SWAP1 SWAP2 SWAP1 PUSH32 0xDDF252AD1BE2C89B69C2B068FC378DAA952BA7F163C4A11628F55A4DF523B3EF SWAP1 PUSH2 0x89D SWAP1 DUP7 SWAP1 PUSH2 0xCD4 JUMP JUMPDEST PUSH1 0x40 MLOAD DUP1 SWAP2 SUB SWAP1 LOG3 PUSH2 0x8AD DUP4 PUSH1 0x0 DUP5 JUMPDEST POP POP POP JUMP JUMPDEST DUP1 CALLDATALOAD PUSH1 0x1 PUSH1 0x1 PUSH1 0xA0 SHL SUB DUP2 AND DUP2 EQ PUSH2 0x3EE JUMPI PUSH1 0x0 DUP1 REVERT JUMPDEST PUSH1 0x0 PUSH1 0x20 DUP3 DUP5 SUB SLT ISZERO PUSH2 0x8DA JUMPI DUP1 DUP2 REVERT JUMPDEST PUSH2 0x8E3 DUP3 PUSH2 0x8B2 JUMP JUMPDEST SWAP4 SWAP3 POP POP POP JUMP JUMPDEST PUSH1 0x0 DUP1 PUSH1 0x40 DUP4 DUP6 SUB SLT ISZERO PUSH2 0x8FC JUMPI DUP1 DUP2 REVERT JUMPDEST PUSH2 0x905 DUP4 PUSH2 0x8B2 JUMP JUMPDEST SWAP2 POP PUSH2 0x913 PUSH1 0x20 DUP5 ADD PUSH2 0x8B2 JUMP JUMPDEST SWAP1 POP SWAP3 POP SWAP3 SWAP1 POP JUMP JUMPDEST PUSH1 0x0 DUP1 PUSH1 0x0 PUSH1 0x60 DUP5 DUP7 SUB SLT ISZERO PUSH2 0x930 JUMPI DUP1 DUP2 REVERT JUMPDEST PUSH2 0x939 DUP5 PUSH2 0x8B2 JUMP JUMPDEST SWAP3 POP PUSH2 0x947 PUSH1 0x20 DUP6 ADD PUSH2 0x8B2 JUMP JUMPDEST SWAP2 POP PUSH1 0x40 DUP5 ADD CALLDATALOAD SWAP1 POP SWAP3 POP SWAP3 POP SWAP3 JUMP JUMPDEST PUSH1 0x0 DUP1 PUSH1 0x40 DUP4 DUP6 SUB SLT ISZERO PUSH2 0x969 JUMPI DUP2 DUP3 REVERT JUMPDEST PUSH2 0x972 DUP4 PUSH2 0x8B2 JUMP JUMPDEST SWAP5 PUSH1 0x20 SWAP4 SWAP1 SWAP4 ADD CALLDATALOAD SWAP4 POP POP POP JUMP JUMPDEST PUSH1 0x0 PUSH1 0x20 DUP3 DUP5 SUB SLT ISZERO PUSH2 0x991 JUMPI DUP1 DUP2 REVERT JUMPDEST POP CALLDATALOAD SWAP2 SWAP1 POP JUMP JUMPDEST PUSH1 0x1 PUSH1 0x1 PUSH1 0xA0 SHL SUB SWAP2 SWAP1 SWAP2 AND DUP2 MSTORE PUSH1 0x20 ADD SWAP1 JUMP JUMPDEST SWAP1 ISZERO ISZERO DUP2 MSTORE PUSH1 0x20 ADD SWAP1 JUMP JUMPDEST PUSH1 0x0 PUSH1 0x20 DUP1 DUP4 MSTORE DUP4 MLOAD DUP1 DUP3 DUP6 ADD MSTORE DUP3 JUMPDEST DUP2 DUP2 LT ISZERO PUSH2 0x9E3 JUMPI DUP6 DUP2 ADD DUP4 ADD MLOAD DUP6 DUP3 ADD PUSH1 0x40 ADD MSTORE DUP3 ADD PUSH2 0x9C7 JUMP JUMPDEST DUP2 DUP2 GT ISZERO PUSH2 0x9F4 JUMPI DUP4 PUSH1 0x40 DUP4 DUP8 ADD ADD MSTORE JUMPDEST POP PUSH1 0x1F ADD PUSH1 0x1F NOT AND SWAP3 SWAP1 SWAP3 ADD PUSH1 0x40 ADD SWAP4 SWAP3 POP POP POP JUMP JUMPDEST PUSH1 0x20 DUP1 DUP3 MSTORE PUSH1 0x23 SWAP1 DUP3 ADD MSTORE PUSH32 0x45524332303A207472616E7366657220746F20746865207A65726F2061646472 PUSH1 0x40 DUP3 ADD MSTORE PUSH3 0x657373 PUSH1 0xE8 SHL PUSH1 0x60 DUP3 ADD MSTORE PUSH1 0x80 ADD SWAP1 JUMP JUMPDEST PUSH1 0x20 DUP1 DUP3 MSTORE PUSH1 0x22 SWAP1 DUP3 ADD MSTORE PUSH32 0x45524332303A206275726E20616D6F756E7420657863656564732062616C616E PUSH1 0x40 DUP3 ADD MSTORE PUSH2 0x6365 PUSH1 0xF0 SHL PUSH1 0x60 DUP3 ADD MSTORE PUSH1 0x80 ADD SWAP1 JUMP JUMPDEST PUSH1 0x20 DUP1 DUP3 MSTORE PUSH1 0x22 SWAP1 DUP3 ADD MSTORE PUSH32 0x45524332303A20617070726F766520746F20746865207A65726F206164647265 PUSH1 0x40 DUP3 ADD MSTORE PUSH2 0x7373 PUSH1 0xF0 SHL PUSH1 0x60 DUP3 ADD MSTORE PUSH1 0x80 ADD SWAP1 JUMP JUMPDEST PUSH1 0x20 DUP1 DUP3 MSTORE PUSH1 0x15 SWAP1 DUP3 ADD MSTORE PUSH21 0x494E535546494349454E545F414C4C4F57414E4345 PUSH1 0x58 SHL PUSH1 0x40 DUP3 ADD MSTORE PUSH1 0x60 ADD SWAP1 JUMP JUMPDEST PUSH1 0x20 DUP1 DUP3 MSTORE PUSH1 0x1D SWAP1 DUP3 ADD MSTORE PUSH32 0x45524332303A20696E73756666696369656E7420616C6C6F77616E6365000000 PUSH1 0x40 DUP3 ADD MSTORE PUSH1 0x60 ADD SWAP1 JUMP JUMPDEST PUSH1 0x20 DUP1 DUP3 MSTORE PUSH1 0x26 SWAP1 DUP3 ADD MSTORE PUSH32 0x45524332303A207472616E7366657220616D6F756E7420657863656564732062 PUSH1 0x40 DUP3 ADD MSTORE PUSH6 0x616C616E6365 PUSH1 0xD0 SHL PUSH1 0x60 DUP3 ADD MSTORE PUSH1 0x80 ADD SWAP1 JUMP JUMPDEST PUSH1 0x20 DUP1 DUP3 MSTORE PUSH1 0x21 SWAP1 DUP3 ADD MSTORE PUSH32 0x45524332303A206275726E2066726F6D20746865207A65726F20616464726573 PUSH1 0x40 DUP3 ADD MSTORE PUSH1 0x73 PUSH1 0xF8 SHL PUSH1 0x60 DUP3 ADD MSTORE PUSH1 0x80 ADD SWAP1 JUMP JUMPDEST PUSH1 0x20 DUP1 DUP3 MSTORE PUSH1 0x25 SWAP1 DUP3 ADD MSTORE PUSH32 0x45524332303A207472616E736665722066726F6D20746865207A65726F206164 PUSH1 0x40 DUP3 ADD MSTORE PUSH5 0x6472657373 PUSH1 0xD8 SHL PUSH1 0x60 DUP3 ADD MSTORE PUSH1 0x80 ADD SWAP1 JUMP JUMPDEST PUSH1 0x20 DUP1 DUP3 MSTORE PUSH1 0x0 SWAP1 DUP3 ADD MSTORE PUSH1 0x40 ADD SWAP1 JUMP JUMPDEST PUSH1 0x20 DUP1 DUP3 MSTORE PUSH1 0x24 SWAP1 DUP3 ADD MSTORE PUSH32 0x45524332303A20617070726F76652066726F6D20746865207A65726F20616464 PUSH1 0x40 DUP3 ADD MSTORE PUSH4 0x72657373 PUSH1 0xE0 SHL PUSH1 0x60 DUP3 ADD MSTORE PUSH1 0x80 ADD SWAP1 JUMP JUMPDEST PUSH1 0x20 DUP1 DUP3 MSTORE PUSH1 0x25 SWAP1 DUP3 ADD MSTORE PUSH32 0x45524332303A2064656372656173656420616C6C6F77616E63652062656C6F77 PUSH1 0x40 DUP3 ADD MSTORE PUSH5 0x207A65726F PUSH1 0xD8 SHL PUSH1 0x60 DUP3 ADD MSTORE PUSH1 0x80 ADD SWAP1 JUMP JUMPDEST PUSH1 0x20 DUP1 DUP3 MSTORE PUSH1 0x1F SWAP1 DUP3 ADD MSTORE PUSH32 0x45524332303A206D696E7420746F20746865207A65726F206164647265737300 PUSH1 0x40 DUP3 ADD MSTORE PUSH1 0x60 ADD SWAP1 JUMP JUMPDEST SWAP1 DUP2 MSTORE PUSH1 0x20 ADD SWAP1 JUMP JUMPDEST PUSH1 0xFF SWAP2 SWAP1 SWAP2 AND DUP2 MSTORE PUSH1 0x20 ADD SWAP1 JUMP JUMPDEST PUSH1 0x0 DUP3 NOT DUP3 GT ISZERO PUSH2 0xD0A JUMPI PUSH4 0x4E487B71 PUSH1 0xE0 SHL DUP2 MSTORE PUSH1 0x11 PUSH1 0x4 MSTORE PUSH1 0x24 DUP2 REVERT JUMPDEST POP ADD SWAP1 JUMP JUMPDEST PUSH1 0x2 DUP2 DIV PUSH1 0x1 DUP3 AND DUP1 PUSH2 0xD23 JUMPI PUSH1 0x7F DUP3 AND SWAP2 POP JUMPDEST PUSH1 0x20 DUP3 LT DUP2 EQ ISZERO PUSH2 0xD44 JUMPI PUSH4 0x4E487B71 PUSH1 0xE0 SHL PUSH1 0x0 MSTORE PUSH1 0x22 PUSH1 0x4 MSTORE PUSH1 0x24 PUSH1 0x0 REVERT JUMPDEST POP SWAP2 SWAP1 POP JUMP INVALID LOG2 PUSH5 0x6970667358 0x22 SLT KECCAK256 REVERT DUP3 KECCAK256 0xD0 DUP8 SWAP9 PC 0xCB NOT SELFBALANCE PUSH31 0x194B426A78FF4C5BBD30D7496DE40A6A485BF114C864736F6C634300080000 CALLER "
				},
				"gasEstimates": {
					"creation": {
						"codeDepositCost": "691200",
						"executionCost": "infinite",
						"totalCost": "infinite"
					},
					"external": {
						"allowance(address,address)": "infinite",
						"approve(address,uint256)": "22642",
						"balanceOf(address)": "1318",
						"burn(uint256)": "infinite",
						"burnFrom(address,uint256)": "infinite",
						"decimals()": "285",
						"decreaseAllowance(address,uint256)": "23689",
						"increaseAllowance(address,uint256)": "23740",
						"mint(address,uint256)": "infinite",
						"name()": "infinite",
						"owner()": "1159",
						"symbol()": "infinite",
						"totalSupply()": "1096",
						"transfer(address,uint256)": "infinite",
						"transferFrom(address,address,uint256)": "infinite"
					}
				},
				"methodIdentifiers": {
					"allowance(address,address)": "dd62ed3e",
					"approve(address,uint256)": "095ea7b3",
					"balanceOf(address)": "70a08231",
					"burn(uint256)": "42966c68",
					"burnFrom(address,uint256)": "79cc6790",
					"decimals()": "313ce567",
					"decreaseAllowance(address,uint256)": "a457c2d7",
					"increaseAllowance(address,uint256)": "39509351",
					"mint(address,uint256)": "40c10f19",
					"name()": "06fdde03",
					"owner()": "8da5cb5b",
					"symbol()": "95d89b41",
					"totalSupply()": "18160ddd",
					"transfer(address,uint256)": "a9059cbb",
					"transferFrom(address,address,uint256)": "23b872dd"
				}
			},
			"storageLayout": {
				"storage": [
					{
						"astId": 119,
						"contract": "MyToken.sol:MyToken",
						"label": "_balances",
						"offset": 0,
						"slot": "0",
						"type": "t_mapping(t_address,t_uint256)"
					},
					{
						"astId": 125,
						"contract": "MyToken.sol:MyToken",
						"label": "_allowances",
						"offset": 0,
						"slot": "1",
						"type": "t_mapping(t_address,t_mapping(t_address,t_uint256))"
					},
					{
						"astId": 127,
						"contract": "MyToken.sol:MyToken",
						"label": "_totalSupply",
						"offset": 0,
						"slot": "2",
						"type": "t_uint256"
					},
					{
						"astId": 129,
						"contract": "MyToken.sol:MyToken",
						"label": "_name",
						"offset": 0,
						"slot": "3",
						"type": "t_string_storage"
					},
					{
						"astId": 131,
						"contract": "MyToken.sol:MyToken",
						"label": "_symbol",
						"offset": 0,
						"slot": "4",
						"type": "t_string_storage"
					},
					{
						"astId": 6,
						"contract": "MyToken.sol:MyToken",
						"label": "owner",
						"offset": 0,
						"slot": "5",
						"type": "t_address"
					}
				],
				"types": {
					"t_address": {
						"encoding": "inplace",
						"label": "address",
						"numberOfBytes": "20"
					},
					"t_mapping(t_address,t_mapping(t_address,t_uint256))": {
						"encoding": "mapping",
						"key": "t_address",
						"label": "mapping(address => mapping(address => uint256))",
						"numberOfBytes": "32",
						"value": "t_mapping(t_address,t_uint256)"
					},
					"t_mapping(t_address,t_uint256)": {
						"encoding": "mapping",
						"key": "t_address",
						"label": "mapping(address => uint256)",
						"numberOfBytes": "32",
						"value": "t_uint256"
					},
					"t_string_storage": {
						"encoding": "bytes",
						"label": "string",
						"numberOfBytes": "32"
					},
					"t_uint256": {
						"encoding": "inplace",
						"label": "uint256",
						"numberOfBytes": "32"
					}
				}
			},
			"userdoc": {
				"kind": "user",
				"methods": {},
				"version": 1
			}
		}
	}
}